{
  "_format": "hh-sol-artifact-1",
  "contractName": "FlashpadMaster",
  "sourceName": "contracts/FlashpadMaster.sol",
  "abi": [
    {
      "inputs": [
        {
          "internalType": "contract IFlashToken",
          "name": "flashToken_",
          "type": "address"
        },
        {
          "internalType": "uint256",
          "name": "startTime_",
          "type": "uint256"
        }
      ],
      "stateMutability": "nonpayable",
      "type": "constructor"
    },
    {
      "anonymous": false,
      "inputs": [
        {
          "indexed": true,
          "internalType": "address",
          "name": "poolAddress",
          "type": "address"
        },
        {
          "indexed": false,
          "internalType": "uint256",
          "name": "amount",
          "type": "uint256"
        }
      ],
      "name": "ClaimRewards",
      "type": "event"
    },
    {
      "anonymous": false,
      "inputs": [
        {
          "indexed": true,
          "internalType": "address",
          "name": "previousOwner",
          "type": "address"
        },
        {
          "indexed": true,
          "internalType": "address",
          "name": "newOwner",
          "type": "address"
        }
      ],
      "name": "OwnershipTransferred",
      "type": "event"
    },
    {
      "anonymous": false,
      "inputs": [
        {
          "indexed": true,
          "internalType": "address",
          "name": "poolAddress",
          "type": "address"
        },
        {
          "indexed": false,
          "internalType": "uint256",
          "name": "allocPoint",
          "type": "uint256"
        }
      ],
      "name": "PoolAdded",
      "type": "event"
    },
    {
      "anonymous": false,
      "inputs": [
        {
          "indexed": true,
          "internalType": "address",
          "name": "poolAddress",
          "type": "address"
        },
        {
          "indexed": false,
          "internalType": "uint256",
          "name": "allocPoint",
          "type": "uint256"
        }
      ],
      "name": "PoolSet",
      "type": "event"
    },
    {
      "anonymous": false,
      "inputs": [
        {
          "indexed": true,
          "internalType": "address",
          "name": "poolAddress",
          "type": "address"
        },
        {
          "indexed": false,
          "internalType": "uint256",
          "name": "reserve",
          "type": "uint256"
        },
        {
          "indexed": false,
          "internalType": "uint256",
          "name": "lastRewardTime",
          "type": "uint256"
        }
      ],
      "name": "PoolUpdated",
      "type": "event"
    },
    {
      "anonymous": false,
      "inputs": [
        {
          "indexed": false,
          "internalType": "bool",
          "name": "emergencyUnlock",
          "type": "bool"
        }
      ],
      "name": "SetEmergencyUnlock",
      "type": "event"
    },
    {
      "anonymous": false,
      "inputs": [
        {
          "indexed": false,
          "internalType": "address",
          "name": "previousYieldBooster",
          "type": "address"
        },
        {
          "indexed": false,
          "internalType": "address",
          "name": "newYieldBooster",
          "type": "address"
        }
      ],
      "name": "SetYieldBooster",
      "type": "event"
    },
    {
      "inputs": [],
      "name": "activePoolsLength",
      "outputs": [
        {
          "internalType": "uint256",
          "name": "",
          "type": "uint256"
        }
      ],
      "stateMutability": "view",
      "type": "function"
    },
    {
      "inputs": [
        {
          "internalType": "contract INFTPool",
          "name": "nftPool",
          "type": "address"
        },
        {
          "internalType": "uint256",
          "name": "allocPoint",
          "type": "uint256"
        },
        {
          "internalType": "bool",
          "name": "withUpdate",
          "type": "bool"
        }
      ],
      "name": "add",
      "outputs": [],
      "stateMutability": "nonpayable",
      "type": "function"
    },
    {
      "inputs": [],
      "name": "claimRewards",
      "outputs": [
        {
          "internalType": "uint256",
          "name": "rewardsAmount",
          "type": "uint256"
        }
      ],
      "stateMutability": "nonpayable",
      "type": "function"
    },
    {
      "inputs": [],
      "name": "emergencyUnlock",
      "outputs": [
        {
          "internalType": "bool",
          "name": "",
          "type": "bool"
        }
      ],
      "stateMutability": "view",
      "type": "function"
    },
    {
      "inputs": [],
      "name": "emissionRate",
      "outputs": [
        {
          "internalType": "uint256",
          "name": "",
          "type": "uint256"
        }
      ],
      "stateMutability": "view",
      "type": "function"
    },
    {
      "inputs": [],
      "name": "flashToken",
      "outputs": [
        {
          "internalType": "address",
          "name": "",
          "type": "address"
        }
      ],
      "stateMutability": "view",
      "type": "function"
    },
    {
      "inputs": [
        {
          "internalType": "uint256",
          "name": "index",
          "type": "uint256"
        }
      ],
      "name": "getActivePoolAddressByIndex",
      "outputs": [
        {
          "internalType": "address",
          "name": "",
          "type": "address"
        }
      ],
      "stateMutability": "view",
      "type": "function"
    },
    {
      "inputs": [
        {
          "internalType": "uint256",
          "name": "index",
          "type": "uint256"
        }
      ],
      "name": "getPoolAddressByIndex",
      "outputs": [
        {
          "internalType": "address",
          "name": "",
          "type": "address"
        }
      ],
      "stateMutability": "view",
      "type": "function"
    },
    {
      "inputs": [
        {
          "internalType": "address",
          "name": "poolAddress_",
          "type": "address"
        }
      ],
      "name": "getPoolInfo",
      "outputs": [
        {
          "internalType": "address",
          "name": "poolAddress",
          "type": "address"
        },
        {
          "internalType": "uint256",
          "name": "allocPoint",
          "type": "uint256"
        },
        {
          "internalType": "uint256",
          "name": "lastRewardTime",
          "type": "uint256"
        },
        {
          "internalType": "uint256",
          "name": "reserve",
          "type": "uint256"
        },
        {
          "internalType": "uint256",
          "name": "poolEmissionRate",
          "type": "uint256"
        }
      ],
      "stateMutability": "view",
      "type": "function"
    },
    {
      "inputs": [],
      "name": "massUpdatePools",
      "outputs": [],
      "stateMutability": "nonpayable",
      "type": "function"
    },
    {
      "inputs": [],
      "name": "owner",
      "outputs": [
        {
          "internalType": "address",
          "name": "",
          "type": "address"
        }
      ],
      "stateMutability": "view",
      "type": "function"
    },
    {
      "inputs": [],
      "name": "poolsLength",
      "outputs": [
        {
          "internalType": "uint256",
          "name": "",
          "type": "uint256"
        }
      ],
      "stateMutability": "view",
      "type": "function"
    },
    {
      "inputs": [],
      "name": "renounceOwnership",
      "outputs": [],
      "stateMutability": "nonpayable",
      "type": "function"
    },
    {
      "inputs": [
        {
          "internalType": "address",
          "name": "poolAddress",
          "type": "address"
        },
        {
          "internalType": "uint256",
          "name": "allocPoint",
          "type": "uint256"
        },
        {
          "internalType": "bool",
          "name": "withUpdate",
          "type": "bool"
        }
      ],
      "name": "set",
      "outputs": [],
      "stateMutability": "nonpayable",
      "type": "function"
    },
    {
      "inputs": [
        {
          "internalType": "bool",
          "name": "emergencyUnlock_",
          "type": "bool"
        }
      ],
      "name": "setEmergencyUnlock",
      "outputs": [],
      "stateMutability": "nonpayable",
      "type": "function"
    },
    {
      "inputs": [
        {
          "internalType": "contract IYieldBooster",
          "name": "yieldBooster_",
          "type": "address"
        }
      ],
      "name": "setYieldBooster",
      "outputs": [],
      "stateMutability": "nonpayable",
      "type": "function"
    },
    {
      "inputs": [],
      "name": "startTime",
      "outputs": [
        {
          "internalType": "uint256",
          "name": "",
          "type": "uint256"
        }
      ],
      "stateMutability": "view",
      "type": "function"
    },
    {
      "inputs": [],
      "name": "totalAllocPoint",
      "outputs": [
        {
          "internalType": "uint256",
          "name": "",
          "type": "uint256"
        }
      ],
      "stateMutability": "view",
      "type": "function"
    },
    {
      "inputs": [
        {
          "internalType": "address",
          "name": "newOwner",
          "type": "address"
        }
      ],
      "name": "transferOwnership",
      "outputs": [],
      "stateMutability": "nonpayable",
      "type": "function"
    },
    {
      "inputs": [
        {
          "internalType": "address",
          "name": "nftPool",
          "type": "address"
        }
      ],
      "name": "updatePool",
      "outputs": [],
      "stateMutability": "nonpayable",
      "type": "function"
    },
    {
      "inputs": [],
      "name": "yieldBooster",
      "outputs": [
        {
          "internalType": "address",
          "name": "",
          "type": "address"
        }
      ],
      "stateMutability": "view",
      "type": "function"
    }
  ],
  "bytecode": "0x60c0604090808252346200021c578181620015ef803803809162000024828562000221565b8339810103126200021c5780516001600160a01b03918282168083036200021c5760209182015160008054336001600160a01b0319821681178355885193979293929091167f8be0079c531659141344cd1fd0a4f28419497f9722a3daafe3b4186f6b6457e08484a38215620001b457508285421092836200013a575b50505015620000ed575060805260a0525161139390816200025c82396080518181816103eb015281816109e601528181610df201526111b2015260a0518181816103b3015261060c0152f35b60849084519062461bcd60e51b82526004820152602160248201527f466c6173687061644d61737465723a20696e76616c696420737461727454696d6044820152606560f81b6064820152fd5b87516321cd7a2f60e11b8152929350829060049082905afa918215620001a957809262000170575b5050831015388281620000a1565b9091508282813d8311620001a1575b6200018b818362000221565b810103126200019e575051388062000162565b80fd5b503d6200017f565b8651903d90823e3d90fd5b62461bcd60e51b815260048101849052603860248201527f466c6173687061644d61737465723a20666c617368546f6b656e2063616e6e6f60448201527f742062652073657420746f207a65726f206164647265737300000000000000006064820152608490fd5b600080fd5b601f909101601f19168101906001600160401b038211908210176200024557604052565b634e487b7160e01b600052604160045260246000fdfe608060408181526004918236101561001657600080fd5b600090813560e01c90816306bfa9381461083c575080630b1391941461073b5780630dec2312146105b8578063179671831461059957806317caf6f11461057a5780632716ae661461055b5780632f38e042146104f6578063372500ab146104d957806345847365146104ba578063630b5ba1146104a057806368e5dab514610477578063715018a61461041a57806377ee0855146103d657806378e979251461039b5780637b46c54f146103535780638da5cb5b1461032b57806396afc45014610307578063a2a4284b1461022c578063f2c3999214610204578063f2fde38b1461013d5763f501d10c1461010b57600080fd5b3461013a57602036600319011261013a575061012960209235610aed565b90516001600160a01b039091168152f35b80fd5b509134610200576020366003190112610200576101586108fb565b610160610925565b6001600160a01b039081169182156101ae575083546001600160a01b0319811683178555925192167f8be0079c531659141344cd1fd0a4f28419497f9722a3daafe3b4186f6b6457e08484a3f35b608490602085519162461bcd60e51b8352820152602660248201527f4f776e61626c653a206e6577206f776e657220697320746865207a65726f206160448201526564647265737360d01b6064820152fd5b8280fd5b50903461022857816003193601126102285760209060ff6008541690519015158152f35b5080fd5b509134610200576020366003190112610200576001600160a01b03813581811692908390036103035761025d610925565b82156102a957507f7318a5c0c2124d6236f6ff6c5970bd58080848fefd17871fb15b8ea976c08a10836001549281519084168152846020820152a16001600160a01b0319161760015551f35b608490602085519162461bcd60e51b8352820152602e60248201527f7365745969656c64426f6f737465723a2063616e6e6f7420626520736574207460448201526d6f207a65726f206164647265737360901b6064820152fd5b8480fd5b5090346102285781600319360112610228576020906103246109d1565b9051908152f35b509034610228578160031936011261022857905490516001600160a01b039091168152602090f35b50913461020057602036600319011261020057610398906103726108fb565b6001600160a01b038116855260209190915282842054610393901515610c13565b6110d9565b51f35b509034610228578160031936011261022857602090517f00000000000000000000000000000000000000000000000000000000000000008152f35b509034610228578160031936011261022857517f00000000000000000000000000000000000000000000000000000000000000006001600160a01b03168152602090f35b509034610228578160031936011261022857610434610925565b81546001600160a01b03198116835590519082906001600160a01b03167f8be0079c531659141344cd1fd0a4f28419497f9722a3daafe3b4186f6b6457e08284a3f35b50903461022857816003193601126102285760015490516001600160a01b039091168152602090f35b509034610228578160031936011261022857610398611302565b5090346102285781600319360112610228576020906005549051908152f35b509034610228578160031936011261022857602090610324610d76565b50913461020057602036600319011261020057358015158091036102005760207f1545be19b3ba6f2e76454d1b8b59529cbbbdf7af9046fd49bd86c17314a5509d91610540610925565b60ff801960085416911680911760085583519015158152a151f35b5090346102285781600319360112610228576020906003549051908152f35b5090346102285781600319360112610228576020906007549051908152f35b503461013a57602036600319011261013a575061012960209235610a5c565b5091346102005760603660031901126102005780356001600160a01b038116919082900361073757602435906105ec610916565b6105f4610925565b83865281602052848620546106f457826106d2575b507f00000000000000000000000000000000000000000000000000000000000000008042116000146106cc575042905b600754908382018092116106b95750916020917f0c98febfffcec480c66a977e13f14bafdb5199ea9603591a0715b0cabe0c3ae293600755600286519161067f8361097d565b83835284830190815287830190898252878a52828652888a2093518455516001840155519101556106af84610b94565b508451908152a251f35b634e487b7160e01b875260119052602486fd5b90610639565b6106e7575b6106e083610b15565b5038610609565b6106ef611302565b6106d7565b845162461bcd60e51b8152602081840152601860248201527f6164643a20706f6f6c20616c72656164792065786973747300000000000000006044820152606490fd5b8380fd5b509134610200576060366003190112610200576107566108fb565b9060243590610763610916565b908260018060a01b0385169485885282602052610784878920541515610c13565b61078c610925565b85885260026020526107a787892091825495610834576110d9565b556107b482600754610c69565b908382018092116106b957506007557f766454cf266311018043fed7121567eca6b8f60d59bc0262dc5f2224734128a19160209115808061082b575b1561080857506106af84610b15565b8451908152a251f35b1580610823575b156107ff5761081d84610c8c565b506107ff565b50801561080f565b508115156107f0565b610393611302565b9192905034610200576020366003190112610200576108596108fb565b6001600160a01b031680845260026020528184209093829061087a8561097d565b82549485815260026001850154948560208401520154948591015260075480156000146108c1575060a09650935b8151958652602086015284015260608301526080820152f35b906108ca6109d1565b9081600019048711821515166108e8575060a09750850204936108a8565b634e487b7160e01b815260118952602490fd5b600435906001600160a01b038216820361091157565b600080fd5b60443590811515820361091157565b6000546001600160a01b0316330361093957565b606460405162461bcd60e51b815260206004820152602060248201527f4f776e61626c653a2063616c6c6572206973206e6f7420746865206f776e65726044820152fd5b6060810190811067ffffffffffffffff82111761099957604052565b634e487b7160e01b600052604160045260246000fd5b90601f8019910116810190811067ffffffffffffffff82111761099957604052565b6040516339eb418960e01b81526020816004817f00000000000000000000000000000000000000000000000000000000000000006001600160a01b03165afa908115610a5057600091610a22575090565b906020823d8211610a48575b81610a3b602093836109af565b8101031261013a57505190565b3d9150610a2e565b6040513d6000823e3d90fd5b600354811015610a9a5760036000527fc2575a0e9e593c00f959f8c92f12db2869c3395a3b0502d05e2516446f71f85b01546001600160a01b031690565b50600090565b600554811015610ad75760056000527f036b6384b5eca791c62761152d0c79bb0604c104a5fb6f4eb0703f3154bb3db00190600090565b634e487b7160e01b600052603260045260246000fd5b600554811015610a9a57610b0090610aa0565b905460039190911b1c6001600160a01b031690565b600081815260066020526040812054610b8f57600554600160401b811015610b7b579082610b67610b4e84600160409601600555610aa0565b819391549060031b600019811b9283911b169119161790565b905560055492815260066020522055600190565b634e487b7160e01b82526041600452602482fd5b905090565b600081815260046020526040812054610b8f57600354600160401b811015610b7b576001810180600355811015610bff5790826040927fc2575a0e9e593c00f959f8c92f12db2869c3395a3b0502d05e2516446f71f85b015560035492815260046020522055600190565b634e487b7160e01b82526032600452602482fd5b15610c1a57565b60405162461bcd60e51b815260206004820152602160248201527f76616c6964617465506f6f6c3a20706f6f6c20646f6573206e6f7420657869736044820152601d60fa1b6064820152608490fd5b91908203918211610c7657565b634e487b7160e01b600052601160045260246000fd5b6000818152600660205260408120549091908015610d715760001990808201818111610d5d5760055490838201918211610d4957808203610d15575b5050506005548015610d0157810190610ce082610aa0565b909182549160031b1b19169055600555815260066020526040812055600190565b634e487b7160e01b84526031600452602484fd5b610d33610d24610b4e93610aa0565b90549060031b1c928392610aa0565b9055845260066020526040842055388080610cc8565b634e487b7160e01b86526011600452602486fd5b634e487b7160e01b85526011600452602485fd5b505090565b600033815260046020818152604090818420541561104057610d97336110d9565b3384526002815260028285200191848354938415610f03575580518381527f1f89f96333d3133000ee447473151fa9606543368f02271c9d95ae14f13bcc67833392a280516370a0823160e01b8152308582015292946024937f00000000000000000000000000000000000000000000000000000000000000006001600160a01b03169190879085818881875afa908115611036578391611009575b50809111611001575b5082518481019263a9059cbb60e01b8452338783015288604483015260448252608082019367ffffffffffffffff9280861084871117610fef5760c0810186811085821117610fdd5787528786527f5361666545524332303a206c6f772d6c6576656c2063616c6c206661696c656460a0820152823b15610f9b5751849283929083905af1903d15610f8c573d908111610f7a578451610efa94939291610eec601f8201601f19168901836109af565b81528092873d92013e61105e565b80519081610f0c575b50505050505090565b8380610f1c938301019101611046565b15610f28578080610f03565b5162461bcd60e51b815292830152602a908201527f5361666545524332303a204552433230206f7065726174696f6e20646964206e6044820152691bdd081cdd58d8d9595960b21b6064820152608490fd5b634e487b7160e01b8352604188528683fd5b50610efa92915060609061105e565b865162461bcd60e51b8152808b01899052601d818b01527f416464726573733a2063616c6c20746f206e6f6e2d636f6e74726163740000006044820152606490fd5b634e487b7160e01b865260418b528986fd5b634e487b7160e01b855260418a528885fd5b965038610e3c565b90508581813d831161102f575b61102081836109af565b81010312610200575138610e33565b503d611016565b85513d85823e3d90fd5b50505090565b90816020910312610911575180151581036109115790565b9091901561106a575090565b81511561107a5750805190602001fd5b6040519062461bcd60e51b82528160208060048301528251908160248401526000935b8285106110c0575050604492506000838284010152601f80199101168101030190fd5b848101820151868601604401529381019385935061109d565b60018060a01b0380911690600090828252602090600282526040928381209160018301918254845490804211156112f75781151580611297575b611156575b505050507ffe9371d05ef5f3f0e1c8bd622b21d0c06aa6b7b6a2ce7d07ad9f5e526979ffcc93929160029142905501549082519182524290820152a2565b6111609042610c69565b6111686109d1565b60001991801515818404831116610d5d57028091048211811515166112835760075493841561126f57879291846024928b519788958694637813570560e01b8652020460048401527f0000000000000000000000000000000000000000000000000000000000000000165af1918215611263578192611234575b50600284019081549283018093116112205750558160027ffe9371d05ef5f3f0e1c8bd622b21d0c06aa6b7b6a2ce7d07ad9f5e526979ffcc38611118565b634e487b7160e01b81526011600452602490fd5b9091508481813d831161125c575b61124c81836109af565b81010312610228575190386111e2565b503d611242565b508551903d90823e3d90fd5b634e487b7160e01b84526012600452602484fd5b634e487b7160e01b83526011600452602483fd5b50875163e61f927d60e01b815287816004818d5afa9081156112ed5784916112c0575b50611113565b6112e09150883d8a116112e6575b6112d881836109af565b810190611046565b386112ba565b503d6112ce565b89513d86823e3d90fd5b505050505050505050565b6005546000805b82811061131557505050565b61133861132182610aa0565b905460039190911b1c6001600160a01b03166110d9565b600019811461134957600101611309565b634e487b7160e01b82526011600452602482fdfea2646970667358221220c16af32bc5610f84cfb3cdc07a6002bc99a2471ef422ba04ec37c8172f4da2b664736f6c63430008100033",
  "linkReferences": {},
  "deployedLinkReferences": {}
}