{
  "_format": "hh-sol-artifact-1",
  "contractName": "NFTPoolFactory",
  "sourceName": "contracts/NFTPoolFactory.sol",
  "abi": [
    {
      "inputs": [
        {
          "internalType": "contract IFlashpadMaster",
          "name": "master_",
          "type": "address"
        },
        {
          "internalType": "contract IERC20",
          "name": "flashToken_",
          "type": "address"
        },
        {
          "internalType": "contract IXFlashToken",
          "name": "xFlashToken_",
          "type": "address"
        }
      ],
      "stateMutability": "nonpayable",
      "type": "constructor"
    },
    {
      "anonymous": false,
      "inputs": [
        {
          "indexed": true,
          "internalType": "address",
          "name": "lpToken",
          "type": "address"
        },
        {
          "indexed": false,
          "internalType": "address",
          "name": "pool",
          "type": "address"
        }
      ],
      "name": "PoolCreated",
      "type": "event"
    },
    {
      "inputs": [
        {
          "internalType": "address",
          "name": "lpToken",
          "type": "address"
        }
      ],
      "name": "createPool",
      "outputs": [
        {
          "internalType": "address",
          "name": "pool",
          "type": "address"
        }
      ],
      "stateMutability": "nonpayable",
      "type": "function"
    },
    {
      "inputs": [],
      "name": "flashToken",
      "outputs": [
        {
          "internalType": "contract IERC20",
          "name": "",
          "type": "address"
        }
      ],
      "stateMutability": "view",
      "type": "function"
    },
    {
      "inputs": [
        {
          "internalType": "address",
          "name": "",
          "type": "address"
        }
      ],
      "name": "getPool",
      "outputs": [
        {
          "internalType": "address",
          "name": "",
          "type": "address"
        }
      ],
      "stateMutability": "view",
      "type": "function"
    },
    {
      "inputs": [],
      "name": "master",
      "outputs": [
        {
          "internalType": "contract IFlashpadMaster",
          "name": "",
          "type": "address"
        }
      ],
      "stateMutability": "view",
      "type": "function"
    },
    {
      "inputs": [
        {
          "internalType": "uint256",
          "name": "",
          "type": "uint256"
        }
      ],
      "name": "pools",
      "outputs": [
        {
          "internalType": "address",
          "name": "",
          "type": "address"
        }
      ],
      "stateMutability": "view",
      "type": "function"
    },
    {
      "inputs": [],
      "name": "poolsLength",
      "outputs": [
        {
          "internalType": "uint256",
          "name": "",
          "type": "uint256"
        }
      ],
      "stateMutability": "view",
      "type": "function"
    },
    {
      "inputs": [],
      "name": "xFlashToken",
      "outputs": [
        {
          "internalType": "contract IXFlashToken",
          "name": "",
          "type": "address"
        }
      ],
      "stateMutability": "view",
      "type": "function"
    }
  ],
  "bytecode": "0x60e0346100b657601f614a1b38819003918201601f19168301916001600160401b038311848410176100bb578084926060946040528339810103126100b65780516001600160a01b03919082811681036100b65760208201519183831683036100b6576040015192831683036100b65760805260a05260c05260405161494990816100d2823960805181818161024c0152610469015260a0518181816101440152610274015260c05181818160fc015261029c0152f35b600080fd5b634e487b7160e01b600052604160045260246000fdfe6080604052600436101562000014575b600080fd5b6000803560e01c9081632716ae6614620000b65750806328cfcaf914620000ab57806377ee085514620000a05780639049f9d21462000095578063ac4afa38146200008a578063bbe4f6db146200007f5763ee97f7f3146200007557600080fd5b6200000f62000450565b506200000f6200041c565b506200000f620003bd565b506200000f62000197565b506200000f6200012b565b506200000f620000e3565b34620000d45780600319360112620000d45760015460805260206080f35b80fd5b60009103126200000f57565b50346200000f5760003660031901126200000f576040517f00000000000000000000000000000000000000000000000000000000000000006001600160a01b03168152602090f35b50346200000f5760003660031901126200000f576040517f00000000000000000000000000000000000000000000000000000000000000006001600160a01b03168152602090f35b60209060031901126200000f576004356001600160a01b03811681036200000f5790565b50346200000f57620001a93662000173565b6001600160a01b03818116600090815260208190526040902054620001d19082161562000498565b620001db62000606565b6040516bffffffffffffffffffffffff19606085901b166020820190815260148252906200020b6034826200050e565b519020906020815191016000f590808216906200022a82151562000531565b831690803b156200000f57604051637c643b2f60e11b81526001600160a01b037f0000000000000000000000000000000000000000000000000000000000000000811660048301527f0000000000000000000000000000000000000000000000000000000000000000811660248301527f000000000000000000000000000000000000000000000000000000000000000081166044830152831660648201526200038b94620003319285926200031292916000908290608490829084905af18015620003ad575b6200038f575b506001600160a01b0316600090815260208190526040902090565b80546001600160a01b0319166001600160a01b03909216919091179055565b6200033c8262000574565b6040516001600160a01b03831681527f4f2ce4e40f623ca765fc0167a25cb7842ceaafb8d82d3dec26ca0d0e0d2d489690602090a26040516001600160a01b0390911681529081906020820190565b0390f35b806200039f620003a692620004ea565b80620000d7565b38620002f7565b620003b762000567565b620002f1565b50346200000f5760203660031901126200000f576004356001548110156200000f5760016000527fb10e2d527612073b26eecdfd717e6a320cf44b4afac2b0732d9fcbe2b7fa0cf601546040516001600160a01b039091168152602090f35b50346200000f5760206001600160a01b0380620004393662000173565b166000526000825260406000205416604051908152f35b50346200000f5760003660031901126200000f576040517f00000000000000000000000000000000000000000000000000000000000000006001600160a01b03168152602090f35b15620004a057565b60405162461bcd60e51b815260206004820152600b60248201526a706f6f6c2065786973747360a81b6044820152606490fd5b50634e487b7160e01b600052604160045260246000fd5b67ffffffffffffffff8111620004ff57604052565b62000509620004d3565b604052565b90601f8019910116810190811067ffffffffffffffff821117620004ff57604052565b156200053957565b60405162461bcd60e51b815260206004820152600660248201526519985a5b195960d21b6044820152606490fd5b506040513d6000823e3d90fd5b60015468010000000000000000811015620005f6575b6001810180600155811015620005e05760016000527fb10e2d527612073b26eecdfd717e6a320cf44b4afac2b0732d9fcbe2b7fa0cf60180546001600160a01b0319166001600160a01b03909216919091179055565b634e487b7160e01b600052603260045260246000fd5b62000600620004d3565b6200058a565b6040516142e96200061b60208201836200050e565b8082526200062b60208301399056fe60a0346200036f576040906001600160401b038183018181118382101762000359578352601d82526020917f466c617368706164207374616b696e6720706f736974696f6e204e465400000083820152835190848201828110848211176200035957855260058252641cdc13919560da1b848301526001916000838155825185811162000345578454938585811c951680156200033a575b8886101462000326578190601f95868111620002d3575b5088908683116001146200026f57849262000263575b5050600019600383901b1c191690851b1784555b81519485116200024f576002548481811c9116801562000244575b878210146200023057838111620001e7575b50859285116001146200017e57939450849291908362000172575b50501b916000199060031b1c1916176002555b614e2060125562f1428060135561271080601455601555611f406016553360805251613f7490816200037582396080518181816103700152610a800152f35b01519250388062000120565b6002815285812093958591601f198316915b88838310620001cc5750505010620001b2575b505050811b0160025562000133565b015160001960f88460031b161c19169055388080620001a3565b85870151885590960195948501948793509081019062000190565b600282528682208480880160051c82019289891062000226575b0160051c019085905b8281106200021a57505062000105565b8381550185906200020a565b9250819262000201565b634e487b7160e01b82526022600452602482fd5b90607f1690620000f3565b634e487b7160e01b81526041600452602490fd5b015190503880620000c4565b8785528985208894509190601f198416865b8c828210620002bc5750508411620002a2575b505050811b018455620000d8565b015160001960f88460031b161c1916905538808062000294565b8385015186558b9790950194938401930162000281565b9091508684528884208680850160051c8201928b86106200031c575b918991869594930160051c01915b8281106200030d575050620000ae565b868155859450899101620002fd565b92508192620002ef565b634e487b7160e01b83526022600452602483fd5b94607f169462000097565b634e487b7160e01b82526041600452602482fd5b634e487b7160e01b600052604160045260246000fd5b600080fdfe608080604052600436101561001357600080fd5b60003560e01c90816301ffc9a714612314575080630332f1141461080c57806304d5b62d1461214e57806306fdde031461208e578063081812fc1461207057806308521f7914611ff7578063095ea7b314611e7857806313e46e8414611e5b578063158ef93e14611e355780631dc6020714611e1757806320f8e94e14611dd257806323b872dd14611d9a5780632c542ede14611b905780632f38e04214611b1f5780633e9b453e14611aac57806340be7bec146119cf57806342842e0e1461199a5780634a256786146119045780634cd5520b1461181b5780634d05c3181461178f5780634f558e79146117595780635312ea8e1461158b57806356dd590b14611381578063570ca7351461135857806360246c88146112955780636352211e1461127757806368e5dab51461125c5780636e00e2da146112435780636f8297af1461120757806370a08231146111705780637dcb2abf14611027578063832c51f614610ff05780638380edb714610fcb578063842072af14610fa55780638da5cb5b14610f785780639016f82214610ed757806395d89b4114610dc9578063a22cb46514610cf7578063a6b0b2a814610c4d578063b29777c314610be8578063b3ab15fb14610b71578063b88d4fde14610aaf578063c45a015514610a6a578063c87b56dd146109f9578063d1aaef0514610815578063d4e32de61461080c578063d5232dee146107d0578063dc6e15bd146107b2578063e3161ddd14610785578063e61f927d14610765578063e985e9c51461070f578063ee97f7f3146106e6578063f2c39992146106c3578063f2e16b3c14610478578063f84ddf0b1461045a578063f8c8765e14610317578063fc78a53c146102f95763fdc5f9301461029e575b600080fd5b34610299576020366003190112610299576102f26004356102c460026000541415612b91565b60026000556102d2816130d6565b6102da6133ef565b80600052601860205260036040600020015490613cc3565b6001600055005b34610299576000366003190112610299576020601654604051908152f35b34610299576080366003190112610299576001600160a01b036004358181169081900361029957610346612409565b916044359080821680920361029957606435918183168093036102995760009460209482846044957f00000000000000000000000000000000000000000000000000000000000000001633148061044a575b6103a1906126a0565b6001600160601b0360a01b9687600c541617600c55600b549316958681600d541617600d55600e541617600e55600160a01b916affffffffffffffffffffff60a81b161717600b55604051948593849263095ea7b360e01b84526004840152811960248401525af1801561043e5761041557005b6104359060203d8111610437575b61042d8183612513565b8101906126d8565b005b503d610423565b6040513d6000823e3d90fd5b50600b5460a01c60ff1615610398565b34610299576000366003190112610299576020600754604051908152f35b34610299576104863661239d565b61049560026000541415612b91565b60026000556104a3826130d6565b6104ab6133ef565b6104b48261259d565b811561069857826000526020926018845261058e8383604060002060018060a01b0390818316600052600989526040600020541580159061067c575b8015610669575b6105009061322a565b61050d84825410156131ba565b61051783876138f1565b610522848254612686565b815561053084600f54612686565b600f55805461065b57600661055b91610550601054600183015490612686565b6010550154866134b0565b847f10b3873e32aa5edce774b02db517f3bde3429d0e97b57b74cb569ba85ce69a5889604051868152a2600c541661325f565b813b61059b576001600055005b604051631a33be3d60e11b858201908152336024830152604482019290925260648101939093526105d983608481015b03601f198101855284612513565b6105e1613eb3565b92823b15610628579260008061061f969461060d948261061a9851925af1610607612e95565b906133af565b80518101820191016126d8565b6126a0565b808080806102f2565b60405162461bcd60e51b815260048101869052601d6024820152600080516020613f1f8339815191526044820152606490fd5b61066490613758565b61055b565b5061050061067561282e565b90506104f7565b506106906002820154600383015490612693565b4210156104f0565b606460405162461bcd60e51b81526020600482015260046024820152631b9d5b1b60e21b6044820152fd5b3461029957600036600319011261029957602060ff601754166040519015158152f35b3461029957600036600319011261029957600b546040516001600160a01b039091168152602090f35b34610299576040366003190112610299576107286123f3565b610730612409565b9060018060a01b03809116600052600660205260406000209116600052602052602060ff604060002054166040519015158152f35b346102995760003660031901126102995760206010541515604051908152f35b34610299576000366003190112610299576107a560026000541415612b91565b60026000556102f26133ef565b34610299576000366003190112610299576020600854604051908152f35b34610299576102f26107e13661239d565b906107f160026000541415612b91565b60026000556107ff816130d6565b6108076133ef565b613cc3565b5061029961237f565b34610299576108646108263661239d565b919061083760026000541415612b91565b600260005561084461282e565b6109ea575b6108516133ef565b600c5433906001600160a01b0316613d7f565b80156109b7576108733361360b565b9161087d8161296e565b91612710918284018085116109a1577fc75220a9dbab7c65d9cc87d8534accb348d3f151ee2afccfb42e6ccf75556f23946040946108be61098c93866129d9565b0490600988670de0b6b3a76400006108d8601154866129d9565b048851936108e585612494565b88855260208501918683528a860190428252606087018a8152608088019084825260a0890192835260c08901936000855260e08a019586526101008a0196600088526101208b019860008a5260005260186020528f6000209a518b555160018b01555160028a01555160038901555160048801555160058701555160068601555160078501555160088401555191015561098184600f54612693565b600f55601054612693565b60105582519182526020820152a26001600055005b634e487b7160e01b600052601160045260246000fd5b60405162461bcd60e51b815260206004820152600b60248201526a1e995c9bc8185b5bdd5b9d60aa1b6044820152606490fd5b6109f48315613038565b610849565b3461029957602036600319011261029957600435600090815260036020526040902054610a30906001600160a01b03161515612551565b6000604051610a3e816124db565b52610a66604051610a4e816124db565b600081526040519182916020835260208301906123b3565b0390f35b34610299576000366003190112610299576040517f00000000000000000000000000000000000000000000000000000000000000006001600160a01b03168152602090f35b3461029957608036600319011261029957610ac86123f3565b610ad0612409565b906064359060443567ffffffffffffffff8311610299573660238401121561029957826004013593610b0185612535565b92610b0f6040519485612513565b85845236602487870101116102995760006020876102f2986024610b6c99018389013786010152610b4560026000541415612b91565b6002600055610b5c610b578433612c40565b612bdd565b610b67838383612cae565b612fbd565b612e71565b34610299576020366003190112610299577fdbebfba65bd6398fb722063efc10c99f624f9cd8ba657201056af918a676d5ee6020610bad6123f3565b6001600160a01b0390610bca82610bc2612704565b1633146126a0565b16806001600160601b0360a01b600a541617600a55604051908152a1005b34610299576020366003190112610299577f02eca5a06c1b5afacef2b06cb09ff68089a873e09778fb4963bfd3fd94adcf876020600435610c326001600160a01b03610bc2612704565b610c406127108211156129ec565b80601655604051908152a1005b34610299577f46cf6b9b4ec75e8786b2e93d4beb426d70d56d9b0eb9bfd40e975f9dc59d77036040610c7e3661239d565b610ca36001600160a01b0380610c92612704565b163314908115610ce9575b506126a0565b613a9881111580610ccd575b610cb8906129ec565b816013558060145582519182526020820152a1005b50610cb8610cdd60155483612693565b60125410159050610caf565b9050600a5416331486610c9d565b3461029957604036600319011261029957610d106123f3565b610d18612454565b6001600160a01b0390911690338214610d845733600052600660205260406000208260005260205260406000209015159060ff1981541660ff83161790556040519081527f17307eab39ab6107e8899845ad3d59bd9653f200f220920489ca2b5937696c3160203392a3005b60405162461bcd60e51b815260206004820152601960248201527f4552433732313a20617070726f766520746f2063616c6c6572000000000000006044820152606490fd5b3461029957600036600319011261029957604051600060025490600182811c91818416918215610ecd575b6020948585108414610eb7578587948686529182600014610e97575050600114610e3a575b50610e2692500383612513565b610a666040519282849384528301906123b3565b84915060026000527f405787fa12a823e0f2b7631cc41b3ba8828b3321ca811111fa75cd3aa3bb5ace906000915b858310610e7f575050610e26935082010185610e19565b80548389018501528794508693909201918101610e68565b60ff191685820152610e2695151560051b8501019250879150610e199050565b634e487b7160e01b600052602260045260246000fd5b92607f1692610df4565b346102995760207fe96d35ce795c2d6a754b1bf60d2ea30785c5a460b6d4bf0e5b48190e5084860d610f083661239d565b610f1a60026000959395541415612b91565b6002600055610f326001600160a01b03610bc26127f6565b610f3a6133ef565b610f43846137e4565b8360005260188252610f6a6040600020610f6260068201938454612686565b809355613758565b604051908152a26001600055005b34610299576000366003190112610299576020610f93612704565b6040516001600160a01b039091168152f35b34610299576020366003190112610299576020610fc360043561296e565b604051908152f35b34610299576000366003190112610299576020610fe661282e565b6040519015158152f35b3461029957600036600319011261029957608060125460135460145460155491604051938452602084015260408301526060820152f35b34610299576020366003190112610299576004356000526018602052602460406000206011549060a0600180821b03600b54166040519485809262d7f52760e31b82523060048301525afa92831561043e576110db6110d0670de0b6b3a76400006110c4610fc3966009956020996000809260009261113a575b508215801590611131575b80611126575b6110e4575b50505060018701546129d9565b04600585015490612686565b600884015490612693565b91015490612693565b61110a61111e94936111056111189461110061110f9542612686565b6129d9565b612693565b6129bc565b60105490612666565b90612693565b8980806110b7565b5060105415156110b2565b508042116110ac565b91505061115e915060a03d8111611169575b6111568183612513565b81019061288e565b90935091508c6110a1565b503d61114c565b34610299576020366003190112610299576001600160a01b036111916123f3565b1680156111b05760005260046020526020604060002054604051908152f35b60405162461bcd60e51b815260206004820152602960248201527f4552433732313a2061646472657373207a65726f206973206e6f7420612076616044820152683634b21037bbb732b960b91b6064820152608490fd5b34610299576020366003190112610299576001600160a01b036112286123f3565b16600052600960205260206040600020541515604051908152f35b34610299576020610fc36112563661239d565b906128bc565b34610299576000366003190112610299576020610f936127f6565b34610299576020366003190112610299576020610f9360043561259d565b3461029957600036600319011261029957600b5460405162d7f52760e31b81523060048201526001600160a01b039160a0908290602490829086165afa90811561043e5761010092600091600093611331575b5080600c54169281600d541691600e54169060115490600f549260105494604051978852602088015260408701526060860152608085015260a084015260c083015260e0820152f35b90925061134c915060a03d8111611169576111568183612513565b505091509091846112e8565b3461029957600036600319011261029957600a546040516001600160a01b039091168152602090f35b346102995760403660031901126102995760043567ffffffffffffffff8111610299576113b2903690600401612463565b6113c160026000541415612b91565b60026000556113ce6133ef565b6113da600182116131ba565b8015611575576113ea823561314b565b8135600052601860205260406000206003810161140c602435825411156131f0565b6114173385356138f1565b602435905561142760243561296e565b600482015560015b828110611499575061144090613758565b604051602080825281018290526001600160fb1b038211610299577f1b6a7445053b0df83054e159a97edc3f3aad4284adaece07bef2fca11928a9309160051b8093604083013760408133948101030190a26001600055005b6114a481848661313b565b35906114af8261314b565b8435821461153d5761152861152d926114c833826138f1565b806000526018602052600660406000206114ea602435600383015411156131f0565b60028701546002820154809110611532575b5061150a8754825490612693565b8755601061151e8154600184015490612686565b90550154906134b0565b612657565b61142f565b6002880155896114fc565b60405162461bcd60e51b815260206004820152601060248201526f1a5b9d985b1a59081d1bdad95b881a5960821b6044820152606490fd5b634e487b7160e01b600052603260045260246000fd5b3461029957602080600319360112610299576004356115af60026000541415612b91565b60026000556115bd8161314b565b806000526018825260406000209033600052600983526040600020541580159061173d575b801561172a575b6115f29061322a565b61161582549261160484600f54612686565b600f55600160105491015490612686565b6010558060005260188352600060096040822082815582600182015582600282015582600382015582600482015582600582015582600682015582600782015582600882015501556116668161259d565b90813b158015611718575b61167a906126a0565b61168381612601565b6001600160a01b0391821660008181526004865260409020805460001981019691929087116109a1576102f2967fb073e6fbd06d7557d2c82f414fee57de28e7fb517ecc0afdd6b1fc57034a9cb89355836000526003825260406000206001600160601b0360a01b815416905583600060405192600080516020613eff8339815191528285a4858152a23390600c541661325f565b50336001600160a01b03831614611671565b506115f261173661282e565b90506115e9565b506117516002830154600384015490612693565b4210156115e2565b34610299576020366003190112610299576004356000908152600360209081526040909120546001600160a01b03161515610fe6565b34610299576040366003190112610299577f28d57a4483d2172573741520aa0af0c5ac1e83cb2523c0d1a37c07b90a2e939560406117cb6123f3565b6117d3612454565b6001600160a01b036117e781610bc2612704565b811561180a576117f8818416612a23565b505b83519216825215156020820152a1005b611815818416612aa7565b506117fa565b346102995760403660031901126102995760043567ffffffffffffffff81116102995761184c903690600401612463565b90611855612409565b61186460026000541415612b91565b60026000556118716133ef565b60005b838110611882576001600055005b806118916118e892868661313b565b3561189b816130d6565b6118c96118a78261259d565b6001600160a01b0381811633149190826118f8575b5081156118ed57506126a0565b6118d384826138f1565b60005260186020526115286040600020613758565b611874565b90503b151588610c9d565b871633149150896118bc565b34610299577fde0bddf440a694ffa55b73c57fcb0c32fc9794b258c4e71ca2c867f6d7137f0560406119353661239d565b6119486001600160a01b03610bc2612704565b6119566161a88311156129ec565b613a9881111580611980575b61196b906129ec565b816012558060155582519182526020820152a1005b5061196b8261199160145484612693565b11159050611962565b34610299576102f2610b6c6119ae3661241f565b90604051926119bc846124db565b60008452610b4560026000541415612b91565b34610299576119dd3661239d565b6119ec60026000541415612b91565b6002600055611a046001600160a01b03610bc26127f6565b6000828152600360205260409020546001600160a01b031615611a755760207fe96d35ce795c2d6a754b1bf60d2ea30785c5a460b6d4bf0e5b48190e5084860d91611a4d6133ef565b611a56846137e4565b8360005260188252610f6a6040600020610f6260068201938454612693565b60405162461bcd60e51b815260206004820152600f60248201526e1a5b9d985b1a59081d1bdad95b9259608a1b6044820152606490fd5b3461029957604036600319011261029957600435611b0a611acb612409565b611ada60026000541415612b91565b6002600055611ae8836130d6565b611afc611af48461259d565b3b15156126a0565b611b046133ef565b826138f1565b60005260186020526102f26040600020613758565b3461029957602036600319011261029957600435801515809103610299577f1545be19b3ba6f2e76454d1b8b59529cbbbdf7af9046fd49bd86c17314a5509d90602090611b756001600160a01b03610bc2612704565b60ff80196017541691168091176017556040519015158152a1005b3461029957611b9e3661239d565b611bad60026000541415612b91565b6002600055611bbf61061a8333612c40565b8015611d6a57611bcd6133ef565b611bd68261259d565b611be081846138f1565b826000526018602052611c36611c14604060002093600385015480611d50575b50600c5433906001600160a01b0316613d7f565b92611c20848254612693565b8155611c2e84600f54612693565b600f55613758565b803b611c7f575b506040805133815260208101929092527f2bc3f231118d71058e11ae6ae9f199b789d86a7012a9d45f4c2ed7d7016478c29190819081015b0390a26001600055005b60405163e2b36dc360e01b60208201908152336024830152604482018590526064820184905291929091611cb683608481016105cb565b611cbe613eb3565b92843b15611d1d57611d07611c75946000807f2bc3f231118d71058e11ae6ae9f199b789d86a7012a9d45f4c2ed7d7016478c298611d16968261061a9751925af1610607612e95565b602080825183010191016126d8565b9150611c3d565b60405162461bcd60e51b815260206004820152601d6024820152600080516020613f1f8339815191526044820152606490fd5b611d5f9042600288015561296e565b600486015586611c00565b60405162461bcd60e51b81526020600482015260086024820152670c08185b5bdd5b9d60c21b6044820152606490fd5b34610299576102f2611dab3661241f565b91611dbb60026000541415612b91565b6002600055611dcd610b578433612c40565b612cae565b3461029957602036600319011261029957600435611df560026000541415612b91565b6002600055611e03816130d6565b611e0b6133ef565b611b0a611b048261259d565b34610299576020366003190112610299576020610f93600435612772565b3461029957600036600319011261029957602060ff600b5460a01c166040519015158152f35b346102995760003660031901126102995760206040516161a88152f35b3461029957604036600319011261029957611e916123f3565b6001600160a01b03906024358280611ea88361259d565b16921691808314611fa857803314908115611f83575b5015611f1857600081815260056020526040812080546001600160a01b0319168417905592611eec8261259d565b1691604051927f8c5be1e5ebec7d5bd14f71427d1e84f3dd0314c0f7b2291e5b200ac8c7c3b9258585a4f35b60405162461bcd60e51b815260206004820152603e60248201527f4552433732313a20617070726f76652063616c6c6572206973206e6f7420746f60448201527f6b656e206f776e6572206e6f7220617070726f76656420666f7220616c6c00006064820152608490fd5b9050600052600660205260406000203360005260205260ff6040600020541684611ebe565b60405162461bcd60e51b815260206004820152602160248201527f4552433732313a20617070726f76616c20746f2063757272656e74206f776e656044820152603960f91b6064820152608490fd5b346102995760203660031901126102995760043560005260186020526101006040600020805490600181015490600281015460038201546004830154906005840154926007600686015495015495604051978852602088015260408701526060860152608085015260a084015260c083015260e0820152f35b34610299576020366003190112610299576020610f936004356125c3565b3461029957600036600319011261029957604051600060019081549182811c91818416918215612144575b6020948585108414610eb7578587948686529182600014610e975750506001146120ea5750610e2692500383612513565b6000818152859250907fb10e2d527612073b26eecdfd717e6a320cf44b4afac2b0732d9fcbe2b7fa0cf65b85831061212c575050610e26935082010185610e19565b80548389018501528794508693909201918101612115565b92607f16926120b9565b346102995761215c3661239d565b61216b60026000541415612b91565b60026000556121798261314b565b6121816133ef565b61219361218d8361259d565b836138f1565b81600052601860205260406000208054808310156122d957826121b591612686565b81556121c081613758565b6121c93361360b565b91600382015492600483015461271090818101958682116109a157600960409661098c946122187f83ad7662a93cf58f10a379c6370e942debc7c8cb1cffb157f519b12973264a4c9a896129d9565b04936002670de0b6b3a7640000612231601154886129d9565b049201549089519461224286612494565b89865260208601938785528b8701938452606087019182526080870183815260a0880191825260c08801926000845260e08901948552610100890195600087526101208a0197600089528d60005260186020528f6000209a518b555160018b01555160028a015551600389015551600488015551600587015551600686015551600785015551600884015551910155601054612693565b60405162461bcd60e51b81526020600482015260136024820152721a5b9d985b1a59081cdc1b1a5d105b5bdd5b9d606a1b6044820152606490fd5b34610299576020366003190112610299576004359063ffffffff60e01b8216809203610299576020916380ac58cd60e01b811490811561236e575b811561235d575b5015158152f35b6301ffc9a760e01b14905083612356565b635b5e139f60e01b8114915061234f565b5034610299576000366003190112610299576020604051613a988152f35b6040906003190112610299576004359060243590565b919082519283825260005b8481106123df575050826000602080949584010152601f8019910116010190565b6020818301810151848301820152016123be565b600435906001600160a01b038216820361029957565b602435906001600160a01b038216820361029957565b6060906003190112610299576001600160a01b0390600435828116810361029957916024359081168103610299579060443590565b60243590811515820361029957565b9181601f840112156102995782359167ffffffffffffffff8311610299576020808501948460051b01011161029957565b610140810190811067ffffffffffffffff8211176124b157604052565b634e487b7160e01b600052604160045260246000fd5b67ffffffffffffffff81116124b157604052565b6020810190811067ffffffffffffffff8211176124b157604052565b6040810190811067ffffffffffffffff8211176124b157604052565b90601f8019910116810190811067ffffffffffffffff8211176124b157604052565b67ffffffffffffffff81116124b157601f01601f191660200190565b1561255857565b60405162461bcd60e51b815260206004820152601860248201527f4552433732313a20696e76616c696420746f6b656e20494400000000000000006044820152606490fd5b6000908152600360205260409020546001600160a01b03166125c0811515612551565b90565b6000818152600360205260409020546125e6906001600160a01b03161515612551565b6000908152600560205260409020546001600160a01b031690565b600081815260056020526040812080546001600160a01b03191690556001600160a01b0361262e8361259d565b167f8c5be1e5ebec7d5bd14f71427d1e84f3dd0314c0f7b2291e5b200ac8c7c3b92582604051a4565b60001981146109a15760010190565b8115612670570490565b634e487b7160e01b600052601260045260246000fd5b919082039182116109a157565b919082018092116109a157565b156126a757565b60405162461bcd60e51b81526020600482015260096024820152682327a92124a22222a760b91b6044820152606490fd5b90816020910312610299575180151581036102995790565b51906001600160a01b038216820361029957565b600b54604051638da5cb5b60e01b815290602090829060049082906001600160a01b03165afa90811561043e5760009161273c575090565b906020823d821161276a575b8161275560209383612513565b8101031261276757506125c0906126f0565b80fd5b3d9150612748565b600854818111156127b8578110156115755760086000527ff3f7a9fe364faab93b216da50a3214154f22a0a2b415b23a84c8169e8b636ee301546001600160a01b031690565b5050600090565b6008548110156115755760086000527ff3f7a9fe364faab93b216da50a3214154f22a0a2b415b23a84c8169e8b636ee30190600090565b600b546040516368e5dab560e01b815290602090829060049082906001600160a01b03165afa90811561043e5760009161273c575090565b60ff60175416801561283d5790565b50600b54604051637961ccc960e11b815290602090829060049082906001600160a01b03165afa90811561043e57600091612876575090565b6125c0915060203d81116104375761042d8183612513565b908160a0910312610299576128a2816126f0565b916020820151916040810151916080606083015192015190565b81158015612966575b6127b8576001600160a01b036128d96127f6565b166000811561295f57509060a460209260155490600f5495604051968795869463d2eec6ff60e01b865230600487015260248601526044850152606484015260848301525afa90811561043e57600091612931575090565b906020823d8211612957575b8161294a60209383612513565b8101031261276757505190565b3d915061293d565b9250505090565b5080156128c5565b61297661282e565b6129b657601354801580156129ae575b6127b857808210156129a6576129a16125c0926014546129d9565b612666565b505060145490565b508115612986565b50600090565b670de0b6b3a76400009080600019048211811515166109a1570290565b80600019048211811515166109a1570290565b156129f357565b60405162461bcd60e51b81526020600482015260086024820152670e8dede40d0d2ced60c31b6044820152606490fd5b600081815260096020526040812054612aa25760085468010000000000000000811015612a8e579082612a7a612a61846001604096016008556127bf565b819391549060031b600019811b9283911b169119161790565b905560085492815260096020522055600190565b634e487b7160e01b82526041600452602482fd5b905090565b6000818152600960205260408120549091908015612b8c5760001990808201818111612b785760085490838201918211612b6457808203612b30575b5050506008548015612b1c57810190612afb826127bf565b909182549160031b1b19169055600855815260096020526040812055600190565b634e487b7160e01b84526031600452602484fd5b612b4e612b3f612a61936127bf565b90549060031b1c9283926127bf565b9055845260096020526040842055388080612ae3565b634e487b7160e01b86526011600452602486fd5b634e487b7160e01b85526011600452602485fd5b505090565b15612b9857565b60405162461bcd60e51b815260206004820152601f60248201527f5265656e7472616e637947756172643a207265656e7472616e742063616c6c006044820152606490fd5b15612be457565b60405162461bcd60e51b815260206004820152602e60248201527f4552433732313a2063616c6c6572206973206e6f7420746f6b656e206f776e6560448201526d1c881b9bdc88185c1c1c9bdd995960921b6064820152608490fd5b906001600160a01b038080612c548461259d565b16931691838314938415612c87575b508315612c71575b50505090565b612c7d919293506125c3565b1614388080612c6b565b909350600052600660205260406000208260005260205260ff604060002054169238612c63565b90612cb88361259d565b6001600160a01b038381169290918216839003612dcb5716918215612d7a573b158015612d71575b612ce9906126a0565b612cf283612601565b60008181526004602052604081208054600019810191908211612d5d575582815260046020526040812080549060018201809211612d5d57558381526003602052604080822080546001600160a01b0319168517905551600080516020613eff8339815191529190a4565b634e487b7160e01b83526011600452602483fd5b50338114612ce0565b60405162461bcd60e51b8152602060048201526024808201527f4552433732313a207472616e7366657220746f20746865207a65726f206164646044820152637265737360e01b6064820152608490fd5b60405162461bcd60e51b815260206004820152602560248201527f4552433732313a207472616e736665722066726f6d20696e636f72726563742060448201526437bbb732b960d91b6064820152608490fd5b60809060208152603260208201527f4552433732313a207472616e7366657220746f206e6f6e20455243373231526560408201527131b2b4bb32b91034b6b83632b6b2b73a32b960711b60608201520190565b15612e7857565b60405162461bcd60e51b815280612e9160048201612e1e565b0390fd5b3d15612ec0573d90612ea682612535565b91612eb46040519384612513565b82523d6000602084013e565b606090565b9091600091803b15612fb457612f106020918493604051948580948193630a85bd0160e11b9a8b845233600485015284602485015260448401526080606484015260848301906123b3565b03926001600160a01b03165af190829082612f68575b5050612f5a57612f34612e95565b80519081612f555760405162461bcd60e51b815280612e9160048201612e1e565b602001fd5b6001600160e01b0319161490565b909192506020813d8211612fac575b81612f8460209383612513565b81010312612fa85751906001600160e01b0319821682036127675750903880612f26565b5080fd5b3d9150612f77565b50505050600190565b91926000929190813b1561302e576020916130139185604051958680958194630a85bd0160e11b9b8c845233600485015260018060a01b03809516602485015260448401526080606484015260848301906123b3565b0393165af190829082612f68575050612f5a57612f34612e95565b5050505050600190565b1561303f57565b60405162461bcd60e51b815260206004820152600e60248201526d1b1bd8dadcc8191a5cd8589b195960921b6044820152606490fd5b1561307c57565b60405162461bcd60e51b815260206004820152602c60248201527f4552433732313a206f70657261746f7220717565727920666f72206e6f6e657860448201526b34b9ba32b73a103a37b5b2b760a11b6064820152608490fd5b60008181526003602052604090205461312391906130fe906001600160a01b03161515613075565b6001600160a01b0390816131118261259d565b163314918215613125575b50506126a0565b565b90915061313233926125c3565b1614388061311c565b91908110156115755760051b0190565b60008181526003602052604090205461316e906001600160a01b03161515613075565b6001600160a01b03906131809061259d565b16330361318957565b60405162461bcd60e51b81526020600482015260096024820152683737ba1037bbb732b960b91b6044820152606490fd5b156131c157565b60405162461bcd60e51b81526020600482015260076024820152661a5b9d985b1a5960ca1b6044820152606490fd5b156131f757565b60405162461bcd60e51b815260206004820152600b60248201526a63616e2774206d6572676560a81b6044820152606490fd5b1561323157565b60405162461bcd60e51b81526020600482015260066024820152651b1bd8dad95960d21b6044820152606490fd5b60405163a9059cbb60e01b60208201526001600160a01b039290921660248301526044808301939093529181526131239161329b606483612513565b6040516001600160a01b0391909116916132b4826124f7565b6020928383527f5361666545524332303a206c6f772d6c6576656c2063616c6c206661696c656484840152803b1561337c57600082819282876133009796519301915af1610607612e95565b8051908161330d57505050565b828061331d9383010191016126d8565b156133255750565b6084906040519062461bcd60e51b82526004820152602a60248201527f5361666545524332303a204552433230206f7065726174696f6e20646964206e6044820152691bdd081cdd58d8d9595960b21b6064820152fd5b60405162461bcd60e51b815260048101859052601d6024820152600080516020613f1f8339815191526044820152606490fd5b909190156133bb575090565b8151156133cb5750805190602001fd5b60405162461bcd60e51b815260206004820152908190612e919060248301906123b3565b600b5460405163372500ab60e01b815290602090829060049082906000906001600160a01b03165af190811561043e5760009161347f575b5080613463575b507f7fa9647ec1cc14e3822b46d05a2b9d4e019bde8875c0088c46b6503d71bf172260406011548151904282526020820152a1565b6134769061111861110f601154926129bc565b6011553861342e565b906020823d82116134a8575b8161349860209383612513565b8101031261276757505138613427565b3d915061348b565b906000906135a0575b8181526018602052600060096040832082815582600182015582600282015582600382015582600482015582600582015582600682015582600782015582600882015501556135078261259d565b803b15801561358e575b61351a906126a0565b61352383612601565b6001600160a01b0316808252600460205260408220805460001981019190821161357a57558282526003602052604082206001600160601b0360a01b8154169055600080516020613eff83398151915282604051a4565b634e487b7160e01b84526011600452602484fd5b50336001600160a01b03821614613511565b6001600160a01b036135b06127f6565b16803b15612fa85760405163152150d560e21b8152336004820152602481018490529082908290604490829084905af18015613600576135f1575b506134b9565b6135fa906124c7565b386135eb565b6040513d84823e3d90fd5b90600160075401918260075582604091825192613627846124db565b60008085526001600160a01b038316918215613715576000858152600360205260409020546001600160a01b03166136d257813b1580156136ca575b61366c906126a0565b82825260046020528082208054906001820180921161357a5792600080516020613eff8339815191528188969394610b6c99956131239b9997558582526003602052808220856001600160601b0360a01b82541617905551a4612ec5565b503315613663565b5162461bcd60e51b815260206004820152601c60248201527f4552433732313a20746f6b656e20616c7265616479206d696e746564000000006044820152606490fd5b5162461bcd60e51b815260206004820181905260248201527f4552433732313a206d696e7420746f20746865207a65726f20616464726573736044820152606490fd5b805461377661376b6006840154836128bc565b600484015490612693565b906012548083116137dc575b50816007840155612710918281018091116109a1576005926137b06137d692670de0b6b3a7640000946129d9565b04806010546137c98261110560018a0193845490612686565b60105555601154906129d9565b04910155565b915038613782565b806000526018602052600080516020613edf83398151915260408060002061382b670de0b6b3a764000061381f6001840154601154906129d9565b04600583015490612686565b9061383461282e565b80156138d5575b6138c2575b81158015906138b5575b80156138a8575b613866575b50815190600082526020820152a2565b612710613875601654846129d9565b04600982019061389f60086138948361388f865489612693565b612686565b940191825490612693565b90555538613856565b5060098101541515613851565b506008810154151561384a565b6000600382015560006004820155613840565b506138e96002820154600383015490612693565b42101561383b565b91909160008181526020936018855260409485832090613930670de0b6b3a76400006139246001850154601154906129d9565b04600584015490612686565b9361393961282e565b8015613ca7575b613c96575b8415801590613c89575b8015613c7c575b613993575b505094516001600160a01b039091168152602081019190915291925090600080516020613edf8339815191529080604081015b0390a2565b6127106139a2601654876129d9565b0460098401926139c760086139bc8461388f88548c612693565b960192835490612693565b926001600160a01b039087821680613a0257505050509161398e9391600080516020613edf8339815191529798999355555b9594933861395b565b9296919581809695555582613b9b575b600d548b516370a0823160e01b815230600482015291951690858782602481865afa918215613b915790899392918792613b5f575b508110613b55575b50613a5b91869161325f565b613a648861259d565b91823b613a8c575b50505050505061398e600080516020613edf8339815191529394956139f9565b8a51948686019263fe4ee96760e01b84523360248801526044870152896064870152608486015260a485015260a4845260e0840184811067ffffffffffffffff8211176124b1578a52613add613eb3565b93823b15613b2357600080516020613edf83398151915298999a94848061061a9561398e9995613b179861060d9651925af1610607612e95565b95949338808080613a6c565b8a5162461bcd60e51b815260048101879052601d6024820152600080516020613f1f8339815191526044820152606490fd5b9550613a5b613a4f565b935090508783813d8111613b8a575b613b788183612513565b81010312610299578892519038613a47565b503d613b6e565b8d513d88823e3d90fd5b91806024878d88600d54169051928380926370a0823160e01b82523060048301525afa908115613b91578691613c4b575b50809111613c43575b5080613be2575b91613a12565b84600e5416803b15613c3f5784809160448e51809481936316874d3760e21b83528760048401528860248401525af18015613c3557613c22575b50613bdc565b613c2e909491946124c7565b9238613c1c565b8c513d87823e3d90fd5b8480fd5b905038613bd5565b90508781813d8311613c75575b613c628183612513565b81010312613c71575138613bcc565b8580fd5b503d613c58565b5060098301541515613956565b506008830154151561394f565b806003840155806004840155613945565b50613cbb6002840154600385015490612693565b421015613940565b9060207f817ea9dab606b88f1d3b71d35f23e301a95c27058f35c39acf502f471feb03b891613cf9613cf361282e565b15613038565b8360005260188252613d4a604060002060028101838154613d206003850191825490612693565b428111613d53575b50613d33338a6138f1565b55613d3d8461296e565b6004830155429055613758565b604051908152a2565b613d5e904290612686565b82101580613d76575b613d70906131ba565b38613d28565b50811515613d67565b604080516370a0823160e01b80825230600483015291959490936001600160a01b0380851694602094909390929185886024818a5afa978815613ea857600098613e79575b508951926323b872dd60e01b8785015216602483015230604483015260648201526064815260a081019080821067ffffffffffffffff8311176124b1578493613e0e928a5261329b565b602487518095819382523060048301525afa948515613e6f5750600094613e3c575b50506125c09192612686565b81813d8311613e68575b613e508183612513565b81010312613e64575192506125c038613e30565b8380fd5b503d613e46565b513d6000823e3d90fd5b90978682813d8311613ea1575b613e908183612513565b810103126127675750519638613dc4565b503d613e86565b8a513d6000823e3d90fd5b60405190613ec0826124f7565b600f82526e1b9bdb881a5b5c1b195b595b9d1959608a1b602083015256fecc70d7e29d5f6e6a993743a891f22f70aee482bafb25b00b8909ee1bf9028ae2ddf252ad1be2c89b69c2b068fc378daa952ba7f163c4a11628f55a4df523b3ef416464726573733a2063616c6c20746f206e6f6e2d636f6e7472616374000000a264697066735822122078e1da169dcfd6fc819cf35ee0989f13a88504a43a6feca879cfdb3a86b550c364736f6c63430008100033a26469706673582212203cc121091b03951d967ccbc895d82e407189f5087ef7a0717cc8bfa6b74d75fc64736f6c63430008100033",
  "linkReferences": {},
  "deployedLinkReferences": {}
}