{
  "_format": "hh-sol-artifact-1",
  "contractName": "ThunderPool",
  "sourceName": "contracts/ThunderPool.sol",
  "abi": [
    {
      "inputs": [
        {
          "internalType": "contract IFlashToken",
          "name": "flashToken_",
          "type": "address"
        },
        {
          "internalType": "contract IXFlashToken",
          "name": "xFlashToken_",
          "type": "address"
        },
        {
          "internalType": "address",
          "name": "owner_",
          "type": "address"
        },
        {
          "internalType": "contract INFTPool",
          "name": "nftPool_",
          "type": "address"
        },
        {
          "internalType": "contract IERC20",
          "name": "rewardsToken1_",
          "type": "address"
        },
        {
          "internalType": "contract IERC20",
          "name": "rewardsToken2_",
          "type": "address"
        },
        {
          "components": [
            {
              "internalType": "uint256",
              "name": "startTime",
              "type": "uint256"
            },
            {
              "internalType": "uint256",
              "name": "endTime",
              "type": "uint256"
            },
            {
              "internalType": "uint256",
              "name": "harvestStartTime",
              "type": "uint256"
            },
            {
              "internalType": "uint256",
              "name": "depositEndTime",
              "type": "uint256"
            },
            {
              "internalType": "uint256",
              "name": "lockDurationReq",
              "type": "uint256"
            },
            {
              "internalType": "uint256",
              "name": "lockEndReq",
              "type": "uint256"
            },
            {
              "internalType": "uint256",
              "name": "depositAmountReq",
              "type": "uint256"
            },
            {
              "internalType": "bool",
              "name": "whitelist",
              "type": "bool"
            },
            {
              "internalType": "string",
              "name": "description",
              "type": "string"
            }
          ],
          "internalType": "struct ThunderPool.Settings",
          "name": "settings_",
          "type": "tuple"
        }
      ],
      "stateMutability": "nonpayable",
      "type": "constructor"
    },
    {
      "anonymous": false,
      "inputs": [],
      "name": "ActivateEmergencyClose",
      "type": "event"
    },
    {
      "anonymous": false,
      "inputs": [
        {
          "indexed": false,
          "internalType": "uint256",
          "name": "amount",
          "type": "uint256"
        },
        {
          "indexed": false,
          "internalType": "uint256",
          "name": "feeAmount",
          "type": "uint256"
        }
      ],
      "name": "AddRewardsToken1",
      "type": "event"
    },
    {
      "anonymous": false,
      "inputs": [
        {
          "indexed": false,
          "internalType": "uint256",
          "name": "amount",
          "type": "uint256"
        },
        {
          "indexed": false,
          "internalType": "uint256",
          "name": "feeAmount",
          "type": "uint256"
        }
      ],
      "name": "AddRewardsToken2",
      "type": "event"
    },
    {
      "anonymous": false,
      "inputs": [
        {
          "indexed": true,
          "internalType": "address",
          "name": "userAddress",
          "type": "address"
        },
        {
          "indexed": false,
          "internalType": "uint256",
          "name": "tokenId",
          "type": "uint256"
        },
        {
          "indexed": false,
          "internalType": "uint256",
          "name": "amount",
          "type": "uint256"
        }
      ],
      "name": "Deposit",
      "type": "event"
    },
    {
      "anonymous": false,
      "inputs": [
        {
          "indexed": true,
          "internalType": "address",
          "name": "userAddress",
          "type": "address"
        },
        {
          "indexed": false,
          "internalType": "uint256",
          "name": "tokenId",
          "type": "uint256"
        },
        {
          "indexed": false,
          "internalType": "uint256",
          "name": "amount",
          "type": "uint256"
        }
      ],
      "name": "EmergencyWithdraw",
      "type": "event"
    },
    {
      "anonymous": false,
      "inputs": [
        {
          "indexed": true,
          "internalType": "address",
          "name": "userAddress",
          "type": "address"
        },
        {
          "indexed": false,
          "internalType": "contract IERC20",
          "name": "rewardsToken",
          "type": "address"
        },
        {
          "indexed": false,
          "internalType": "uint256",
          "name": "pending",
          "type": "uint256"
        }
      ],
      "name": "Harvest",
      "type": "event"
    },
    {
      "anonymous": false,
      "inputs": [
        {
          "indexed": true,
          "internalType": "address",
          "name": "previousOwner",
          "type": "address"
        },
        {
          "indexed": true,
          "internalType": "address",
          "name": "newOwner",
          "type": "address"
        }
      ],
      "name": "OwnershipTransferred",
      "type": "event"
    },
    {
      "anonymous": false,
      "inputs": [],
      "name": "Publish",
      "type": "event"
    },
    {
      "anonymous": false,
      "inputs": [
        {
          "indexed": false,
          "internalType": "address",
          "name": "contractAddress",
          "type": "address"
        }
      ],
      "name": "SetCustomReqContract",
      "type": "event"
    },
    {
      "anonymous": false,
      "inputs": [
        {
          "indexed": false,
          "internalType": "uint256",
          "name": "endTime",
          "type": "uint256"
        },
        {
          "indexed": false,
          "internalType": "uint256",
          "name": "harvestStartTime",
          "type": "uint256"
        },
        {
          "indexed": false,
          "internalType": "uint256",
          "name": "depositEndTime",
          "type": "uint256"
        }
      ],
      "name": "SetDateSettings",
      "type": "event"
    },
    {
      "anonymous": false,
      "inputs": [
        {
          "indexed": false,
          "internalType": "string",
          "name": "description",
          "type": "string"
        }
      ],
      "name": "SetDescription",
      "type": "event"
    },
    {
      "anonymous": false,
      "inputs": [
        {
          "indexed": false,
          "internalType": "uint256",
          "name": "lockDurationReq",
          "type": "uint256"
        },
        {
          "indexed": false,
          "internalType": "uint256",
          "name": "lockEndReq",
          "type": "uint256"
        },
        {
          "indexed": false,
          "internalType": "uint256",
          "name": "depositAmountReq",
          "type": "uint256"
        },
        {
          "indexed": false,
          "internalType": "bool",
          "name": "whitelist",
          "type": "bool"
        }
      ],
      "name": "SetRequirements",
      "type": "event"
    },
    {
      "anonymous": false,
      "inputs": [
        {
          "indexed": false,
          "internalType": "contract IERC20",
          "name": "rewardsToken2",
          "type": "address"
        }
      ],
      "name": "SetRewardsToken2",
      "type": "event"
    },
    {
      "anonymous": false,
      "inputs": [],
      "name": "UpdatePool",
      "type": "event"
    },
    {
      "anonymous": false,
      "inputs": [],
      "name": "WhitelistUpdated",
      "type": "event"
    },
    {
      "anonymous": false,
      "inputs": [
        {
          "indexed": true,
          "internalType": "address",
          "name": "userAddress",
          "type": "address"
        },
        {
          "indexed": false,
          "internalType": "uint256",
          "name": "tokenId",
          "type": "uint256"
        },
        {
          "indexed": false,
          "internalType": "uint256",
          "name": "amount",
          "type": "uint256"
        }
      ],
      "name": "Withdraw",
      "type": "event"
    },
    {
      "anonymous": false,
      "inputs": [
        {
          "indexed": false,
          "internalType": "uint256",
          "name": "amount",
          "type": "uint256"
        },
        {
          "indexed": false,
          "internalType": "uint256",
          "name": "totalRewardsAmount",
          "type": "uint256"
        }
      ],
      "name": "WithdrawRewardsToken1",
      "type": "event"
    },
    {
      "anonymous": false,
      "inputs": [
        {
          "indexed": false,
          "internalType": "uint256",
          "name": "amount",
          "type": "uint256"
        },
        {
          "indexed": false,
          "internalType": "uint256",
          "name": "totalRewardsAmount",
          "type": "uint256"
        }
      ],
      "name": "WithdrawRewardsToken2",
      "type": "event"
    },
    {
      "inputs": [],
      "name": "activateEmergencyClose",
      "outputs": [],
      "stateMutability": "nonpayable",
      "type": "function"
    },
    {
      "inputs": [
        {
          "internalType": "uint256",
          "name": "amountToken1",
          "type": "uint256"
        },
        {
          "internalType": "uint256",
          "name": "amountToken2",
          "type": "uint256"
        }
      ],
      "name": "addRewards",
      "outputs": [],
      "stateMutability": "nonpayable",
      "type": "function"
    },
    {
      "inputs": [],
      "name": "creationTime",
      "outputs": [
        {
          "internalType": "uint256",
          "name": "",
          "type": "uint256"
        }
      ],
      "stateMutability": "view",
      "type": "function"
    },
    {
      "inputs": [],
      "name": "customReqContract",
      "outputs": [
        {
          "internalType": "contract IThunderCustomReq",
          "name": "",
          "type": "address"
        }
      ],
      "stateMutability": "view",
      "type": "function"
    },
    {
      "inputs": [],
      "name": "emergencyClose",
      "outputs": [
        {
          "internalType": "bool",
          "name": "",
          "type": "bool"
        }
      ],
      "stateMutability": "view",
      "type": "function"
    },
    {
      "inputs": [
        {
          "internalType": "uint256",
          "name": "tokenId",
          "type": "uint256"
        }
      ],
      "name": "emergencyWithdraw",
      "outputs": [],
      "stateMutability": "nonpayable",
      "type": "function"
    },
    {
      "inputs": [],
      "name": "factory",
      "outputs": [
        {
          "internalType": "contract IThunderPoolFactory",
          "name": "",
          "type": "address"
        }
      ],
      "stateMutability": "view",
      "type": "function"
    },
    {
      "inputs": [],
      "name": "flashToken",
      "outputs": [
        {
          "internalType": "contract IFlashToken",
          "name": "",
          "type": "address"
        }
      ],
      "stateMutability": "view",
      "type": "function"
    },
    {
      "inputs": [],
      "name": "harvest",
      "outputs": [],
      "stateMutability": "nonpayable",
      "type": "function"
    },
    {
      "inputs": [
        {
          "internalType": "address",
          "name": "account",
          "type": "address"
        }
      ],
      "name": "isWhitelisted",
      "outputs": [
        {
          "internalType": "bool",
          "name": "",
          "type": "bool"
        }
      ],
      "stateMutability": "view",
      "type": "function"
    },
    {
      "inputs": [],
      "name": "lastRewardTime",
      "outputs": [
        {
          "internalType": "uint256",
          "name": "",
          "type": "uint256"
        }
      ],
      "stateMutability": "view",
      "type": "function"
    },
    {
      "inputs": [],
      "name": "nftPool",
      "outputs": [
        {
          "internalType": "contract INFTPool",
          "name": "",
          "type": "address"
        }
      ],
      "stateMutability": "view",
      "type": "function"
    },
    {
      "inputs": [
        {
          "internalType": "address",
          "name": "",
          "type": "address"
        },
        {
          "internalType": "address",
          "name": "from",
          "type": "address"
        },
        {
          "internalType": "uint256",
          "name": "tokenId",
          "type": "uint256"
        },
        {
          "internalType": "bytes",
          "name": "",
          "type": "bytes"
        }
      ],
      "name": "onERC721Received",
      "outputs": [
        {
          "internalType": "bytes4",
          "name": "",
          "type": "bytes4"
        }
      ],
      "stateMutability": "nonpayable",
      "type": "function"
    },
    {
      "inputs": [
        {
          "internalType": "address",
          "name": "operator",
          "type": "address"
        },
        {
          "internalType": "uint256",
          "name": "tokenId",
          "type": "uint256"
        },
        {
          "internalType": "uint256",
          "name": "amount",
          "type": "uint256"
        }
      ],
      "name": "onNFTAddToPosition",
      "outputs": [
        {
          "internalType": "bool",
          "name": "",
          "type": "bool"
        }
      ],
      "stateMutability": "nonpayable",
      "type": "function"
    },
    {
      "inputs": [
        {
          "internalType": "address",
          "name": "operator",
          "type": "address"
        },
        {
          "internalType": "address",
          "name": "to",
          "type": "address"
        },
        {
          "internalType": "uint256",
          "name": "tokenId",
          "type": "uint256"
        },
        {
          "internalType": "uint256",
          "name": "flashAmount",
          "type": "uint256"
        },
        {
          "internalType": "uint256",
          "name": "xFlashAmount",
          "type": "uint256"
        }
      ],
      "name": "onNFTHarvest",
      "outputs": [
        {
          "internalType": "bool",
          "name": "",
          "type": "bool"
        }
      ],
      "stateMutability": "nonpayable",
      "type": "function"
    },
    {
      "inputs": [
        {
          "internalType": "address",
          "name": "",
          "type": "address"
        },
        {
          "internalType": "uint256",
          "name": "",
          "type": "uint256"
        },
        {
          "internalType": "uint256",
          "name": "",
          "type": "uint256"
        }
      ],
      "name": "onNFTWithdraw",
      "outputs": [
        {
          "internalType": "bool",
          "name": "",
          "type": "bool"
        }
      ],
      "stateMutability": "pure",
      "type": "function"
    },
    {
      "inputs": [],
      "name": "owner",
      "outputs": [
        {
          "internalType": "address",
          "name": "",
          "type": "address"
        }
      ],
      "stateMutability": "view",
      "type": "function"
    },
    {
      "inputs": [
        {
          "internalType": "address",
          "name": "account",
          "type": "address"
        }
      ],
      "name": "pendingRewards",
      "outputs": [
        {
          "internalType": "uint256",
          "name": "pending1",
          "type": "uint256"
        },
        {
          "internalType": "uint256",
          "name": "pending2",
          "type": "uint256"
        }
      ],
      "stateMutability": "view",
      "type": "function"
    },
    {
      "inputs": [],
      "name": "publish",
      "outputs": [],
      "stateMutability": "nonpayable",
      "type": "function"
    },
    {
      "inputs": [],
      "name": "publishTime",
      "outputs": [
        {
          "internalType": "uint256",
          "name": "",
          "type": "uint256"
        }
      ],
      "stateMutability": "view",
      "type": "function"
    },
    {
      "inputs": [],
      "name": "published",
      "outputs": [
        {
          "internalType": "bool",
          "name": "",
          "type": "bool"
        }
      ],
      "stateMutability": "view",
      "type": "function"
    },
    {
      "inputs": [],
      "name": "renounceOwnership",
      "outputs": [],
      "stateMutability": "nonpayable",
      "type": "function"
    },
    {
      "inputs": [],
      "name": "resetWhitelist",
      "outputs": [],
      "stateMutability": "nonpayable",
      "type": "function"
    },
    {
      "inputs": [],
      "name": "rewardsToken1",
      "outputs": [
        {
          "internalType": "contract IERC20",
          "name": "token",
          "type": "address"
        },
        {
          "internalType": "uint256",
          "name": "amount",
          "type": "uint256"
        },
        {
          "internalType": "uint256",
          "name": "remainingAmount",
          "type": "uint256"
        },
        {
          "internalType": "uint256",
          "name": "accRewardsPerShare",
          "type": "uint256"
        }
      ],
      "stateMutability": "view",
      "type": "function"
    },
    {
      "inputs": [],
      "name": "rewardsToken1PerSecond",
      "outputs": [
        {
          "internalType": "uint256",
          "name": "",
          "type": "uint256"
        }
      ],
      "stateMutability": "view",
      "type": "function"
    },
    {
      "inputs": [],
      "name": "rewardsToken2",
      "outputs": [
        {
          "internalType": "contract IERC20",
          "name": "token",
          "type": "address"
        },
        {
          "internalType": "uint256",
          "name": "amount",
          "type": "uint256"
        },
        {
          "internalType": "uint256",
          "name": "remainingAmount",
          "type": "uint256"
        },
        {
          "internalType": "uint256",
          "name": "accRewardsPerShare",
          "type": "uint256"
        }
      ],
      "stateMutability": "view",
      "type": "function"
    },
    {
      "inputs": [],
      "name": "rewardsToken2PerSecond",
      "outputs": [
        {
          "internalType": "uint256",
          "name": "",
          "type": "uint256"
        }
      ],
      "stateMutability": "view",
      "type": "function"
    },
    {
      "inputs": [
        {
          "internalType": "address",
          "name": "contractAddress",
          "type": "address"
        }
      ],
      "name": "setCustomReqContract",
      "outputs": [],
      "stateMutability": "nonpayable",
      "type": "function"
    },
    {
      "inputs": [
        {
          "internalType": "uint256",
          "name": "endTime_",
          "type": "uint256"
        },
        {
          "internalType": "uint256",
          "name": "harvestStartTime_",
          "type": "uint256"
        },
        {
          "internalType": "uint256",
          "name": "depositEndTime_",
          "type": "uint256"
        }
      ],
      "name": "setDateSettings",
      "outputs": [],
      "stateMutability": "nonpayable",
      "type": "function"
    },
    {
      "inputs": [
        {
          "internalType": "string",
          "name": "description",
          "type": "string"
        }
      ],
      "name": "setDescription",
      "outputs": [],
      "stateMutability": "nonpayable",
      "type": "function"
    },
    {
      "inputs": [
        {
          "internalType": "uint256",
          "name": "lockDurationReq_",
          "type": "uint256"
        },
        {
          "internalType": "uint256",
          "name": "lockEndReq_",
          "type": "uint256"
        },
        {
          "internalType": "uint256",
          "name": "depositAmountReq_",
          "type": "uint256"
        },
        {
          "internalType": "bool",
          "name": "whitelist_",
          "type": "bool"
        }
      ],
      "name": "setRequirements",
      "outputs": [],
      "stateMutability": "nonpayable",
      "type": "function"
    },
    {
      "inputs": [
        {
          "internalType": "contract IERC20",
          "name": "rewardsToken2_",
          "type": "address"
        }
      ],
      "name": "setRewardsToken2",
      "outputs": [],
      "stateMutability": "nonpayable",
      "type": "function"
    },
    {
      "inputs": [
        {
          "components": [
            {
              "internalType": "address",
              "name": "account",
              "type": "address"
            },
            {
              "internalType": "bool",
              "name": "status",
              "type": "bool"
            }
          ],
          "internalType": "struct ThunderPool.WhitelistStatus[]",
          "name": "whitelistStatuses",
          "type": "tuple[]"
        }
      ],
      "name": "setWhitelist",
      "outputs": [],
      "stateMutability": "nonpayable",
      "type": "function"
    },
    {
      "inputs": [],
      "name": "settings",
      "outputs": [
        {
          "internalType": "uint256",
          "name": "startTime",
          "type": "uint256"
        },
        {
          "internalType": "uint256",
          "name": "endTime",
          "type": "uint256"
        },
        {
          "internalType": "uint256",
          "name": "harvestStartTime",
          "type": "uint256"
        },
        {
          "internalType": "uint256",
          "name": "depositEndTime",
          "type": "uint256"
        },
        {
          "internalType": "uint256",
          "name": "lockDurationReq",
          "type": "uint256"
        },
        {
          "internalType": "uint256",
          "name": "lockEndReq",
          "type": "uint256"
        },
        {
          "internalType": "uint256",
          "name": "depositAmountReq",
          "type": "uint256"
        },
        {
          "internalType": "bool",
          "name": "whitelist",
          "type": "bool"
        },
        {
          "internalType": "string",
          "name": "description",
          "type": "string"
        }
      ],
      "stateMutability": "view",
      "type": "function"
    },
    {
      "inputs": [
        {
          "internalType": "uint256",
          "name": "",
          "type": "uint256"
        }
      ],
      "name": "tokenIdOwner",
      "outputs": [
        {
          "internalType": "address",
          "name": "",
          "type": "address"
        }
      ],
      "stateMutability": "view",
      "type": "function"
    },
    {
      "inputs": [],
      "name": "totalDepositAmount",
      "outputs": [
        {
          "internalType": "uint256",
          "name": "",
          "type": "uint256"
        }
      ],
      "stateMutability": "view",
      "type": "function"
    },
    {
      "inputs": [
        {
          "internalType": "address",
          "name": "newOwner",
          "type": "address"
        }
      ],
      "name": "transferOwnership",
      "outputs": [],
      "stateMutability": "nonpayable",
      "type": "function"
    },
    {
      "inputs": [],
      "name": "updatePool",
      "outputs": [],
      "stateMutability": "nonpayable",
      "type": "function"
    },
    {
      "inputs": [
        {
          "internalType": "address",
          "name": "",
          "type": "address"
        }
      ],
      "name": "userInfo",
      "outputs": [
        {
          "internalType": "uint256",
          "name": "totalDepositAmount",
          "type": "uint256"
        },
        {
          "internalType": "uint256",
          "name": "rewardDebtToken1",
          "type": "uint256"
        },
        {
          "internalType": "uint256",
          "name": "rewardDebtToken2",
          "type": "uint256"
        },
        {
          "internalType": "uint256",
          "name": "pendingRewardsToken1",
          "type": "uint256"
        },
        {
          "internalType": "uint256",
          "name": "pendingRewardsToken2",
          "type": "uint256"
        }
      ],
      "stateMutability": "view",
      "type": "function"
    },
    {
      "inputs": [
        {
          "internalType": "address",
          "name": "account",
          "type": "address"
        },
        {
          "internalType": "uint256",
          "name": "index",
          "type": "uint256"
        }
      ],
      "name": "userTokenId",
      "outputs": [
        {
          "internalType": "uint256",
          "name": "",
          "type": "uint256"
        }
      ],
      "stateMutability": "view",
      "type": "function"
    },
    {
      "inputs": [
        {
          "internalType": "address",
          "name": "account",
          "type": "address"
        }
      ],
      "name": "userTokenIdsLength",
      "outputs": [
        {
          "internalType": "uint256",
          "name": "",
          "type": "uint256"
        }
      ],
      "stateMutability": "view",
      "type": "function"
    },
    {
      "inputs": [
        {
          "internalType": "uint256",
          "name": "index",
          "type": "uint256"
        }
      ],
      "name": "whitelistAddress",
      "outputs": [
        {
          "internalType": "address",
          "name": "",
          "type": "address"
        }
      ],
      "stateMutability": "view",
      "type": "function"
    },
    {
      "inputs": [],
      "name": "whitelistLength",
      "outputs": [
        {
          "internalType": "uint256",
          "name": "",
          "type": "uint256"
        }
      ],
      "stateMutability": "view",
      "type": "function"
    },
    {
      "inputs": [
        {
          "internalType": "uint256",
          "name": "tokenId",
          "type": "uint256"
        }
      ],
      "name": "withdraw",
      "outputs": [],
      "stateMutability": "nonpayable",
      "type": "function"
    },
    {
      "inputs": [
        {
          "internalType": "uint256",
          "name": "amountToken1",
          "type": "uint256"
        },
        {
          "internalType": "uint256",
          "name": "amountToken2",
          "type": "uint256"
        }
      ],
      "name": "withdrawRewards",
      "outputs": [],
      "stateMutability": "nonpayable",
      "type": "function"
    },
    {
      "inputs": [],
      "name": "xFlashToken",
      "outputs": [
        {
          "internalType": "contract IXFlashToken",
          "name": "",
          "type": "address"
        }
      ],
      "stateMutability": "view",
      "type": "function"
    }
  ],
  "bytecode": "0x608060405234620008e05762003dad803803806200001d81620008e5565b92833960e0828281010312620008e0578151906001600160a01b0382168203620008e0576020830151916001600160a01b0383168303620008e0576040840151926001600160a01b0384168403620008e0576060850151906001600160a01b0382168203620008e05762000094608087016200090b565b92620000a360a088016200090b565b60c08801519095906001600160401b038111620008e05761012098898282018483010312620008e057604051998a016001600160401b0381118b821017620006dc57604090815281830180518c52602080820151908d015280820151918c0191909152606080820151908c0152608080820151908c015260a080820151908c015260c080820151908c015260e001518015158103620008e05760e08b015280820161010001516001600160401b038111620008e057838201601f8285850101011215620008e057818301810151926001600160401b038411620006dc5762000195601f8501601f1916602001620008e5565b9484865283016020858484870101010111620008e05760005b848110620008c657505050506020600091830101526101008801526001600055620001d93362000920565b6001600160a01b038116151580620008b3575b80620008a0575b806200088d575b806200087a575b15620008465786514210156200080d57865160208801511115620007d65760608701518015908115620007c9575b501562000784576040870151801590811562000777575b501562000732576001600160a01b0384811690861614620006fc57600280546001600160a01b031990811633179091556003805482166001600160a01b03938416179055600480548216938316939093179092556005805483169382169390931790925542600755600b8054821693831693909317909255600f805490921692169190911790558151601a8190556020830151601b556014819055604083015180620006f25750601c555b6060820151601d5561010082015180519092906001600160401b038111620006dc576022908154600181811c91168015620006d1575b6020821014620006bc57601f81116200066f575b50602094601f82116001146200060457948192939495600092620005f8575b50508160011b916000199060031b1c19161790555b608081015160a082015160e060c084015193015115159080158015620005ec575b6200039b906200096e565b60ff60085416620004d7575b907f4f49c49ff16acb310d9b9b87703c99594e407985b787e282988a4389faba8bc6938392608094601e5580601f558160205560ff196021541660ff841617602155604051938452602084015260408301526060820152a1600154336001600160a01b039091160362000493576001600160a01b038116156200043f576200042f9062000920565b6040516133ff9081620009ae8239f35b60405162461bcd60e51b815260206004820152602660248201527f4f776e61626c653a206e6577206f776e657220697320746865207a65726f206160448201526564647265737360d01b6064820152608490fd5b606460405162461bcd60e51b815260206004820152602060248201527f4f776e61626c653a2063616c6c6572206973206e6f7420746865206f776e65726044820152fd5b9190601e548210620005a757620004f3601f548410156200096e565b6020548410620005625760ff60215416158181158062000557575b5050156200051e579091620003a7565b60405162461bcd60e51b81526020600482015260116024820152701a5b9d985b1a59081dda1a5d195b1a5cdd607a1b6044820152606490fd5b14905081386200050e565b60405162461bcd60e51b815260206004820152601560248201527f696e76616c6964206465706f736974416d6f756e7400000000000000000000006044820152606490fd5b60405162461bcd60e51b815260206004820152601460248201527f696e76616c6964206c6f636b4475726174696f6e0000000000000000000000006044820152606490fd5b50601a54811162000390565b0151905038806200035a565b601f198216958360005260206000209160005b88811062000656575083600195969798106200063c575b505050811b0190556200036f565b015160001960f88460031b161c191690553880806200062e565b9192602060018192868501518155019401920162000617565b826000526020600020601f830160051c81019160208410620006b1575b601f0160051c01905b818110620006a457506200033b565b6000815560010162000695565b90915081906200068c565b82634e487b7160e01b60005260045260246000fd5b90607f169062000327565b634e487b7160e01b600052604160045260246000fd5b601c5550620002f1565b60405162461bcd60e51b815260206004820152600e60248201526d696e76616c696420746f6b656e7360901b6044820152606490fd5b60405162461bcd60e51b815260206004820152601860248201527f696e76616c69642068617276657374537461727454696d6500000000000000006044820152606490fd5b9050875111153862000246565b60405162461bcd60e51b815260206004820152601660248201527f696e76616c6964206465706f736974456e6454696d65000000000000000000006044820152606490fd5b905087511115386200022f565b60405162461bcd60e51b815260206004820152600f60248201526e696e76616c696420656e6454696d6560881b6044820152606490fd5b60405162461bcd60e51b8152602060048201526011602482015270696e76616c696420737461727454696d6560781b6044820152606490fd5b60405162461bcd60e51b815260206004820152600c60248201526b7a65726f206164647265737360a01b6044820152606490fd5b506001600160a01b038416151562000201565b506001600160a01b0383161515620001fa565b506001600160a01b0386161515620001f3565b506001600160a01b0382161515620001ec565b8060208092858588010101015182828901015201620001ae565b600080fd5b6040519190601f01601f191682016001600160401b03811183821017620006dc57604052565b51906001600160a01b0382168203620008e057565b600180546001600160a01b039283166001600160a01b031982168117909255604051919216907f8be0079c531659141344cd1fd0a4f28419497f9722a3daafe3b4186f6b6457e090600090a3565b156200097657565b60405162461bcd60e51b815260206004820152600f60248201526e1a5b9d985b1a59081b1bd8dad15b99608a1b6044820152606490fdfe6040608081526004908136101561001557600080fd5b6000803560e01c8063075d47821461213b5780630828862d14612112578063150b7a0214611e7c5780631959a00214611e1957806321b4921c14611de1578063248a56c014611cdd57806328cfcaf914611cb55780632c2a592814611c805780632e1a7d4d14611b3f5780632e3c591914611af657806331d7a2621461195a57806334677c7a1461193d5780633af32abf146119015780634641257d146118b857806352cb5133146117675780635312ea8e146116185780635909865a14611566578063715018a61461149857806377ee08551461146f57806378bb5164146114505780637c042d61146113065780638950b9a6146112bf5780638d4d2b0c1461129b5780638da5cb5b146112725780638e3291c91461123f57806390c3f38f1461102f5780639231cf7414611010578063961938f114610f7a578063a9cc9ae914610f56578063ada278ef14610f39578063b92ca19714610f10578063bc13c46e14610ec9578063bf1e333214610dc2578063c45a015514610d99578063c5408d5014610d7a578063c933934a14610c0a578063d8270dce14610beb578063e06174e414610ab2578063e2b36dc314610a4c578063e3161ddd14610a19578063e467fa80146109fa578063f29617111461077e578063f2fde38b14610634578063f533c96a1461060c578063fc41aa09146103665763fe4ee9671461021a57600080fd5b346103635760a036600319011261036357610233612265565b9261023c61227b565b60018060a01b0392839161025583600554163314612560565b604435825261027460209760168952848885205416948591161461268b565b8416301490811590826102f8575b50156102bf57610297575b5050505160018152f35b6102b7926102ac6064358383600354166128b7565b6084359254166128b7565b38808061028d565b845162461bcd60e51b8152808401879052601360248201527263616e742068616e646c65207265776172647360681b6044820152606490fd5b90506024878686541688519283809262f773f360e51b8252308a8301525afa918215610358579161032b575b5038610282565b61034b9150873d8911610351575b610343818361237f565b81019061289f565b38610324565b503d610339565b8751903d90823e3d90fd5b80fd5b509134610608576103e89061037a366122e9565b61038b600287959395541415612514565b6002865561039c601b544210612b0d565b6103a4612cb6565b600254600154865163d41b0f2760e01b8152308682019081526001600160a01b03928316602082810191909152929792959388169391929186918491829160400190565b0381865afa9182156105c757869386918b946105d1575b508951630824ea6b60e31b815297889182905afa9586156105c7578996610598575b5080610510575b5082610438575b87876001825551f35b85600f54169182156104dd57509282610490889361271061047e61048899987f45241e302e41254ac31ac15e7346d8b7e83b49610507828c043e75d97b1ea0d598612501565b0497888094612410565b9033906131cd565b9161049d836010546124d7565b6010556104ac836011546124d7565b6011558351928352820152a1816104c6575b80808061042f565b6104d5923390600f5416612b65565b3880806104be565b875162461bcd60e51b8152908101859052600d60248201526c3932bbb0b93239aa37b5b2b71960991b6044820152606490fd5b7f5066830ee857f8185d6b00ef7557246e98fd7fc2ac0528a4fffe750053313776886105536127106105428686612501565b0493610488858c600b541692612410565b61055f81600c546124d7565b600c5561056e81600d546124d7565b600d5581519081528388820152a180156104285761059290863389600b5416612b65565b38610428565b6105b9919650853d87116105c0575b6105b1818361237f565b810190612b46565b9438610421565b503d6105a7565b88513d8b823e3d90fd5b9450925083813d8311610601575b6105e9818361237f565b810103126105fc578486935192386103ff565b600080fd5b503d6105df565b8280fd5b5090346106305781600319360112610630576020906106296123e1565b9051908152f35b5080fd5b5091346106085760203660031901126106085761064f612265565b610657612ab5565b6002546001546001600160a01b039291908316908316803b156105fc57855163f6642a9760e01b81526001600160a01b03928316868201908152928416602084015291600091839182908490829060400103925af180156107735790839291610764575b506106c4612ab5565b16918215610712575060015492826bffffffffffffffffffffffff60a01b8516176001555192167f8be0079c531659141344cd1fd0a4f28419497f9722a3daafe3b4186f6b6457e0600084a3f35b608490602085519162461bcd60e51b8352820152602660248201527f4f776e61626c653a206e6577206f776e657220697320746865207a65726f206160448201526564647265737360d01b6064820152fd5b61076d90612339565b386106bb565b85513d6000823e3d90fd5b5091346106085760603660031901126106085780359060248035906044928335936107ad600289541415612514565b600288556107b9612ab5565b601a5492868410156109c757601b546107d481421115612b0d565b861580156109bd575b156109835785158681968215610978575b5050156109375760ff60085416610860575b505050509183916060937f7861cb8c66210f838711e11fe52412c9757ae520575ceee7ee008cbbe57f762295601b5560001461085757601a54601c555b81601d558551928352602083015284820152a16001825551f35b80601c5561083d565b87106109005785601d54036108bf5784601c540361087e5780610800565b60649291601c7f6e6f7420616c6c6f7765642068617276657374537461727454696d65000000009260208b519562461bcd60e51b8752860152840152820152fd5b60649291601a7f6e6f7420616c6c6f776564206465706f736974456e6454696d650000000000009260208b519562461bcd60e51b8752860152840152820152fd5b606492916013726e6f7420616c6c6f77656420656e6454696d6560681b9260208b519562461bcd60e51b8752860152840152820152fd5b885162461bcd60e51b81526020818601526018818401527f696e76616c69642068617276657374537461727454696d65000000000000000081850152606490fd5b1115905086386107ee565b885162461bcd60e51b815260208186015260168184015275696e76616c6964206465706f736974456e6454696d6560501b81850152606490fd5b50868511156107dd565b60649291600f6e696e76616c696420656e6454696d6560881b9260208b519562461bcd60e51b8752860152840152820152fd5b5090346106305781600319360112610630576020906009549051908152f35b509034610630578160031936011261063057610a39600283541415612514565b60028255610a45612cb6565b6001825551f35b509034610630576001602092610aaa610a64366122bf565b91610a73600286541415612514565b60028555610aa5868060a01b03610a8f81600554163314612560565b83875260168a528089882054169083161461268b565b612dd4565b555160018152f35b5034610363578060031936011261036357601a54601b54601c5493601d5494601e54601f549060209788549360ff60215416958051978a8c602254610af6816122ff565b808d5292600191808316908115610bc85750600114610b62575b50505050610b2489610b5e9b9c038a61237f565b81519b8c9b8c528b01528901526060880152608087015260a086015260c0850152151560e0840152610120806101008501528301906123a1565b0390f35b602281529d509091907f61035b26e3e9eee00e0d72fd1ee8ddca6894550dca6916ea2ac6baa90d11e510828f5b10610bab575050509a8901909a0199610b248c610b5e8b610b10565b818f92939f918e8680948354920101520191019d9190828f610b8f565b60ff1916848f015250505090151560051b8a01019a50610b248c610b5e8b610b10565b5090346106305781600319360112610630576020906007549051908152f35b509134610608576080366003190112610608578035906024356044359060643592831515809403610d7657610c3d612ab5565b81158015610d6b575b610c4f90612c35565b60ff60085416610cb4575b509183916080937f4f49c49ff16acb310d9b9b87703c99594e407985b787e282988a4389faba8bc695601e5580601f558160205560ff196021541660ff84161760215586519384526020840152858301526060820152a151f35b610cc2601e54861015612c73565b610cd0601f54831015612c35565b6020548310610d305760ff602154161584811580610d26575b5050610c5a57606490602087519162461bcd60e51b835282015260116024820152701a5b9d985b1a59081dda1a5d195b1a5cdd607a1b6044820152fd5b1490508438610ce9565b606490602087519162461bcd60e51b835282015260156024820152741a5b9d985b1a590819195c1bdcda5d105b5bdd5b9d605a1b6044820152fd5b50601a548211610c46565b8680fd5b5090346106305781600319360112610630576020906013549051908152f35b50903461063057816003193601126106305760025490516001600160a01b039091168152602090f35b509134610608576020366003190112610608576001600160a01b0381358181169290839003610ec557610df3612ab5565b610e01600286541415612514565b610e1060ff6008541615612ba7565b600f5491808316610e9457600b54168314610e6757506001600160a01b0319168117600f5581519081527f5e11eef9026871e4634731ac8981015002d27a183f26034f4f6466e62f0eeb6f90602090a16001825551f35b606490602085519162461bcd60e51b835282015260076024820152661a5b9d985b1a5960ca1b6044820152fd5b845162461bcd60e51b8152602081840152600b60248201526a185b1c9958591e481cd95d60aa1b6044820152606490fd5b8480fd5b503461036357806003193601126103635750600f5460105460115460125493516001600160a01b039093168352602083019190915260408201526060810191909152608090f35b50903461063057816003193601126106305760065490516001600160a01b039091168152602090f35b509034610630578160031936011261063057602090610629612453565b50903461063057816003193601126106305760209060ff600a541690519015158152f35b509034610630576020366003190112610630577f070ac22faf9ccb6c368b4dc940445967905c3cd9f50459204e09e30ac382c7326020610fb8612265565b610fc0612ab5565b60ff60085416158015610fff575b610fd790612ba7565b600680546001600160a01b0319166001600160a01b039290921691821790558351908152a151f35b506001600160a01b03811615610fce565b5090346106305781600319360112610630576020906014549051908152f35b509134610608576020908160031936011261123b5767ffffffffffffffff918135838111611237576110649036908401612291565b92909361106f612ab5565b8311611224575083906110836022546122ff565b601f81116111b6575b508593601f841160011461110e57838091817fab7dca68789bfbe74d09f14600944885d215fdf09987a0aba59a2df718577241978a91611103575b508260011b906000198460031b1c1916176022555b8451958487958652850152848401378181018301879052601f01601f19168101030190a151f35b9050810135386110c7565b602287527f61035b26e3e9eee00e0d72fd1ee8ddca6894550dca6916ea2ac6baa90d11e51094601f198516885b81811061119c5750917fab7dca68789bfbe74d09f14600944885d215fdf09987a0aba59a2df7185772419686939284809410611182575b5050600182811b016022556110dc565b820135600019600385901b60f8161c191690553880611172565b83830135885560019097019688955091840191840161113b565b909150602286527f61035b26e3e9eee00e0d72fd1ee8ddca6894550dca6916ea2ac6baa90d11e510601f840160051c81019183851061121a575b90601f879493920160051c01905b81811061120b575061108c565b600081558693506001016111fe565b90915081906111f0565b634e487b7160e01b865260419052602485fd5b8580fd5b8380fd5b5091346106085760203660031901126106085735825260166020908152918190205490516001600160a01b039091168152f35b50903461063057816003193601126106305760015490516001600160a01b039091168152602090f35b50903461063057816003193601126106305760209060ff6008541690519015158152f35b503461036357806003193601126103635750600b54600c54600d54600e5493516001600160a01b039093168352602083019190915260408201526060810191909152608090f35b5091346106085760208060031936011261123b5767ffffffffffffffff9180358381116112375736602382011215611237578082013593841161123757602493848201918536918360061b010111610d7657611360612ab5565b801561142657865b818110611398578787517f22f196d9cf5ab2abfb5e4f2e291a2452f5c28d88e99b62b74b9c6e62ab231a448282a1f35b846113a4828486612c11565b0135801515810361142257156113fd576113d86001600160a01b036113d26113cd848688612c11565b612c21565b1661259e565b505b60001981146113eb57600101611368565b634e487b7160e01b8852601184528588fd5b61141c6001600160a01b036114166113cd848688612c11565b166126c5565b506113da565b8880fd5b855162461bcd60e51b815280840185905260058187015264656d70747960d81b6044820152606490fd5b5090346106305781600319360112610630576020906018549051908152f35b50903461063057816003193601126106305760035490516001600160a01b039091168152602090f35b5091346106085782600319360112610608576114b2612ab5565b6002546001546001600160a01b039291831691908316823b156105fc576044600092838751958694859363f6642a9760e01b85528401528160248401525af1801561155b57906000929161154c575b5061150a612ab5565b600154926bffffffffffffffffffffffff60a01b84166001555192167f8be0079c531659141344cd1fd0a4f28419497f9722a3daafe3b4186f6b6457e08284a3f35b61155590612339565b38611501565b83513d6000823e3d90fd5b509134610608578260031936011261060857611580612ab5565b601854805b6115b2575050517f22f196d9cf5ab2abfb5e4f2e291a2452f5c28d88e99b62b74b9c6e62ab231a448282a1f35b6000198101818111611605576115ca6115e191612472565b905460039190911b1c6001600160a01b03166126c5565b5080156115f2576000190180611585565b634e487b7160e01b845260118252602484fd5b634e487b7160e01b855260118352602485fd5b509134610608576020908160031936011261123b5780359161163e600286541415612514565b6002855582855260168152838520546001600160a01b03928691611665908516331461268b565b61166e85613341565b5050933383526015845261169f878420611689878254612410565b815561169787601354612410565b601355613149565b338352601784526116b2868885206127af565b508583526016845286832080546001600160a01b031916905560055416803b15610608578651632142170760e11b81523092810192835233602084015260408301879052918391839182908490829060600103925af1801561175d57611749575b505083519283528201527fbb757047c2b5f3974fe26b7c10f732e7bce710b0952a71082702781e62ae0595823392a26001825551f35b61175290612339565b610ec5578438611713565b86513d84823e3d90fd5b50903461063057611777366122e9565b90611780612ab5565b61178e600285541415612514565b600284556117a160ff6008541615612ba7565b80611848575b5080151580611834575b6117be575b506001825551f35b61182e907f55638f4a6d3d291dc7d21ee797dd02f3e9b84117ac89d4dd1a066ac015a53b26836117f9601054846117f3612bdf565b91612c03565b8060105561180c601154856117f3612bdf565b6011558151908482526020820152a1600f5433906001600160a01b03166132ae565b826117b6565b50600f546001600160a01b031615156117b1565b6118b2907f7ae1cbfc94d111a288e93adca547fd53d15f17df6bca73e865c13805ca7222648461187d600c54846117f3612bdf565b80600c55611890600d54856117f3612bdf565b600d558151908482526020820152a1600b5433906001600160a01b03166132ae565b836117a7565b5090346106305781600319360112610630576118d8600283541415612514565b600282556118e4612cb6565b3382526015602052610a458183206118fc3382612f43565b613149565b509034610630576020366003190112610630576020906001600160a01b03611927612265565b1660005260198252806000205415159051908152f35b5090346106305790602091611951366122bf565b50505051908152f35b508290346103635760203660031901126103635782906001600160a01b03611980612265565b16815260156020522082519160a0830183811067ffffffffffffffff821117611ae157611a369291611a2791865282548552600183015492602086019384526002810154918787019283526003820154916060880192835201549360808701948552600e54906012549060145442811080611ad6575b611a42575b50611a1e9293611a27611a2f928b611a1e670de0b6b3a764000098899251612501565b04905190612410565b9051906124d7565b9751612501565b82519182526020820152f35b93611a27611ac3611a2f9394611a9c611a1e97611abe611aae611aa2611a8e611a7d8e611a77611a706123e1565b9142612410565b90612501565b600d54808211611ace575b506124e4565b93611a9c6013548096612433565b906124d7565b9b611a77611a70612453565b601154808211611ace57506124e4565b612433565b9392505093926119fb565b905038611a88565b5060135415156119f6565b604182634e487b7160e01b6000525260246000fd5b509034610630578060031936011261063057602091611b31906001600160a01b03611b1f612265565b168152601784528260243591206124bf565b91905490519160031b1c8152f35b509134610608576020908160031936011261123b57803591611b65600286541415612514565b6002855582855260168152838520546001600160a01b03928691611b8c908516331461268b565b611b9585613341565b505093611ba0612cb6565b33835260158452611bc2878420611bb73382612f43565b611689878254612410565b33835260178452611bd5868885206127af565b508583526016845286832080546001600160a01b031916905560055416803b15610608578651632142170760e11b81523092810192835233602084015260408301879052918391839182908490829060600103925af1801561175d57611c6c575b505083519283528201527ff279e6a1f5e320cca91135676d9cb6e44ca8a08c0b88342bcdb1144f6511b568823392a26001825551f35b611c7590612339565b610ec5578438611c36565b50346103635760203660031901126103635750611c9f60209235612472565b905491519160018060a01b039160031b1c168152f35b5091346106085782600319360112610608575490516001600160a01b03909116815260209150f35b509134610608578260031936011261060857611cfd600284541415612514565b60028355611d09612ab5565b6002548251634633d06160e11b8152916001600160a01b03916020918491829085165afa8015611dd457610a45928591611db6575b50600d5491611dad60115493611d5681600c54612410565b600c5587600d55611d6985601054612410565b60105587601155600160ff19600a541617600a557f8f2074b85901276b66e93d26866fda1a15b75609ce29ee820a90c3eb1eab2efc888851a18383600b54166132ae565b600f54166132ae565b611dce915060203d81116105c0576105b1818361237f565b38611d3e565b50505051903d90823e3d90fd5b5090346106305760203660031901126106305760209181906001600160a01b03611e09612265565b1681526017845220549051908152f35b509190346106085760203660031901126106085760a09281906001600160a01b03611e42612265565b1681526015602052208054926001820154926002830154916003840154930154938151958652602086015284015260608301526080820152f35b50913461060857608036600319011261060857611e97612265565b50611ea061227b565b6044359060643567ffffffffffffffff811161123757611ec39036908501612291565b5050611ed3600286541415612514565b600285556005546001600160a01b0390611ef09082163314612560565b60ff60085416156120df5760ff602154161580156120c9575b1561209457908186939282168085526017602052611f298488872061261d565b50838552601660205286852080546001600160a01b0319169091179055611f4f83613341565b90601e5480612064575b50601f549081612048575b50505060205480611ffe575b50611f7c908484612dd4565b6005541690813b1561123b57855163095ea7b360e01b81526001600160a01b039091169481019485526020850192909252909283919082908490829060400103925af18015611ff257611fde575b5060016020925551630a85bd0160e11b8152f35b611fe88391612339565b6106305738611fca565b505051903d90823e3d90fd5b8192939495501161201457908693929138611f70565b855162461bcd60e51b8152602081870152600e60248201526d1a5b9d985b1a5908185b5bdd5b9d60921b6044820152606490fd5b61205c92612055916124d7565b1015612c35565b388080611f64565b612083908361207381856124d7565b42109182612089575b5050612c73565b38611f59565b11159050833861207c565b845162461bcd60e51b8152602081860152600f60248201526e1b9bdd081dda1a5d195b1a5cdd1959608a1b6044820152606490fd5b5080821686526019602052848620541515611f09565b845162461bcd60e51b8152602081860152600d60248201526c1b9bdd081c1d589b1a5cda1959609a1b6044820152606490fd5b50903461063057816003193601126106305760055490516001600160a01b039091168152602090f35b508234610630578160031936011261063057612155612ab5565b60085461216560ff821615612ba7565b601a5442101561223a57600c541561220a5760ff1916600117600855426009556002546005546001600160a01b0391821692911690823b1561123b5790602484928387519586948593633a8ba26960e01b85528401525af18015612200576121f1575b5090517f12e60d2b86077411e0638198488616eb20137be7d4543ffde74a18c60d8407888282a1f35b6121fa90612339565b826121c8565b83513d84823e3d90fd5b835162461bcd60e51b8152602081840152600a6024820152696e6f207265776172647360b01b6044820152606490fd5b835162461bcd60e51b815260208184015260056024820152647374616c6560d81b6044820152606490fd5b600435906001600160a01b03821682036105fc57565b602435906001600160a01b03821682036105fc57565b9181601f840112156105fc5782359167ffffffffffffffff83116105fc57602083818601950101116105fc57565b60609060031901126105fc576004356001600160a01b03811681036105fc57906024359060443590565b60409060031901126105fc576004359060243590565b90600182811c9216801561232f575b602083101461231957565b634e487b7160e01b600052602260045260246000fd5b91607f169161230e565b67ffffffffffffffff811161234d57604052565b634e487b7160e01b600052604160045260246000fd5b6040810190811067ffffffffffffffff82111761234d57604052565b90601f8019910116810190811067ffffffffffffffff82111761234d57604052565b919082519283825260005b8481106123cd575050826000602080949584010152601f8019910116010190565b6020818301810151848301820152016123ac565b601b5460145490818111156124095761240061240692600d5492612410565b90612433565b90565b5050600090565b9190820391821161241d57565b634e487b7160e01b600052601160045260246000fd5b811561243d570490565b634e487b7160e01b600052601260045260246000fd5b601b546014549081811115612409576124006124069260115492612410565b6018548110156124a95760186000527fb13d2d76d1f4b7be834882e410b3e3a8afaf69f83600ae24db354391d2378d2e0190600090565b634e487b7160e01b600052603260045260246000fd5b80548210156124a95760005260206000200190600090565b9190820180921161241d57565b670de0b6b3a764000090806000190482118115151661241d570290565b806000190482118115151661241d570290565b1561251b57565b60405162461bcd60e51b815260206004820152601f60248201527f5265656e7472616e637947756172643a207265656e7472616e742063616c6c006044820152606490fd5b1561256757565b60405162461bcd60e51b815260206004820152600f60248201526e1a5b9d985b1a5908139195141bdbdb608a1b6044820152606490fd5b60008181526019602052604081205461261857601854600160401b8110156126045790826125f06125d784600160409601601855612472565b819391549060031b600019811b9283911b169119161790565b905560185492815260196020522055600190565b634e487b7160e01b82526041600452602482fd5b905090565b9190600183016000908282528060205260408220541560001461268557845494600160401b86101561267157836126616125d7886001604098999a018555846124bf565b9055549382526020522055600190565b634e487b7160e01b83526041600452602483fd5b50925050565b1561269257565b60405162461bcd60e51b815260206004820152600b60248201526a1b9bdd08185b1b1bddd95960aa1b6044820152606490fd5b60008181526019602052604081205490919080156127aa576000199080820181811161279657601854908382019182116127825780820361274e575b505050601854801561273a5781019061271982612472565b909182549160031b1b19169055601855815260196020526040812055600190565b634e487b7160e01b84526031600452602484fd5b61276c61275d6125d793612472565b90549060031b1c928392612472565b9055845260196020526040842055388080612701565b634e487b7160e01b86526011600452602486fd5b634e487b7160e01b85526011600452602485fd5b505090565b906001820190600092818452826020526040842054908115156000146128985760001991808301818111612884578254908482019182116128705780820361283b575b505050805480156128275782019161280a83836124bf565b909182549160031b1b191690555582526020526040812055600190565b634e487b7160e01b86526031600452602486fd5b61285b61284b6125d793866124bf565b90549060031b1c928392866124bf565b905586528460205260408620553880806127f2565b634e487b7160e01b88526011600452602488fd5b634e487b7160e01b87526011600452602487fd5b5050505090565b908160209103126105fc575180151581036105fc5790565b60405163a9059cbb60e01b60208201526001600160a01b03909216602483015260448201929092526128ff916128fa82606481015b03601f19810184528361237f565b612901565b565b6040519192916001600160a01b039091169061291c81612363565b6020918282527f5361666545524332303a206c6f772d6c6576656c2063616c6c206661696c656483830152803b15612a2c5760008581969282868195519301915af1933d15612a1d573d9467ffffffffffffffff8611612604576129a19394956040519061299387601f19601f840116018361237f565b81528092863d92013e612a71565b805190816129ae57505050565b82806129be93830101910161289f565b156129c65750565b6084906040519062461bcd60e51b82526004820152602a60248201527f5361666545524332303a204552433230206f7065726174696f6e20646964206e6044820152691bdd081cdd58d8d9595960b21b6064820152fd5b506129a1919293606090612a71565b60405162461bcd60e51b815260048101849052601d60248201527f416464726573733a2063616c6c20746f206e6f6e2d636f6e74726163740000006044820152606490fd5b90919015612a7d575090565b815115612a8d5750805190602001fd5b60405162461bcd60e51b815260206004820152908190612ab19060248301906123a1565b0390fd5b6001546001600160a01b03163303612ac957565b606460405162461bcd60e51b815260206004820152602060248201527f4f776e61626c653a2063616c6c6572206973206e6f7420746865206f776e65726044820152fd5b15612b1457565b60405162461bcd60e51b815260206004820152600a6024820152691c1bdbdb08195b99195960b21b6044820152606490fd5b908160209103126105fc57516001600160a01b03811681036105fc5790565b6040516323b872dd60e01b60208201526001600160a01b03928316602482015292909116604483015260648201929092526128ff916128fa82608481016128ec565b15612bae57565b60405162461bcd60e51b81526020600482015260096024820152681c1d589b1a5cda195960ba1b6044820152606490fd5b60405190612bec82612363565b60088252670e8dede40d0d2ced60c31b6020830152565b9091818311612a8d57500390565b91908110156124a95760061b0190565b356001600160a01b03811681036105fc5790565b15612c3c57565b60405162461bcd60e51b815260206004820152600f60248201526e1a5b9d985b1a59081b1bd8dad15b99608a1b6044820152606490fd5b15612c7a57565b60405162461bcd60e51b815260206004820152601460248201527334b73b30b634b2103637b1b5a23ab930ba34b7b760611b6044820152606490fd5b6014544211156128ff576013548015612da657612cd16123e1565b90612d0e612ce660145493611a778542612410565b600d54808211612d9e575b81612cfb91612410565b600d55611a9c83611abe600e54936124e4565b600e55600f546001600160a01b0316612d51575b5050426014557f3b995fb49557022d683e66ab27e0339ab7db40111da9b4f57765b99e20f786866000604051a1565b612d63612d8c92611a77611a70612453565b60115491828211612d96575b612d7d82611a9c9394612410565b601155611abe601254936124e4565b6012553880612d22565b829150612d6f565b905080612cf1565b50426014557f3b995fb49557022d683e66ab27e0339ab7db40111da9b4f57765b99e20f786866000604051a1565b9190601d548015908115612f38575b5080612f2b575b612df39061268b565b6006546001600160a01b0390811680612e79575b50907f90890809c654f11d6e72a28fa60149770a0d11ec6c92319d6ceb2bb0a4ea1a1592612e6c604093612e39612cb6565b861695866000526015602052612e53856000209182612f43565b612e5e8382546124d7565b8155611697836013546124d7565b82519182526020820152a2565b60405163387777d760e21b81526001600160a01b03861660048201526024810184905291929190602090829060449082905afa908115612f1f57600091612f01575b5015612ec8579038612e07565b60405162461bcd60e51b8152602060048201526011602482015270696e76616c696420637573746f6d52657160781b6044820152606490fd5b612f19915060203d811161035157610343818361237f565b38612ebb565b6040513d6000823e3d90fd5b50600a5460ff1615612dea565b905042111538612de3565b6006546001926001600160a01b03918216806130f0575b50612f78612f848454670de0b6b3a7640000928391600e5490612501565b04600186015490612410565b601c54421080156130e8575b1561307c57612fa4600386019182546124d7565b90555b82600f5416612fb8575b5050505050565b612fd690612fca855460125490612501565b04600285015490612410565b93601c544210908115613073575b50156130085750506004612ffb91019182546124d7565b90555b3880808080612fb1565b600061303b60047fa0306f61d3fafe13787b78e276cb6b644382854a66cb46daae14227d3ec267979501958654906124d7565b945561304c848284600f54166132ae565b600f54604080519184166001600160a01b03168252602082019590955291169290a2612ffe565b90501538612fe4565b600061308e60038701928354906124d7565b915561309f818486600b54166132ae565b600b54604080519186166001600160a01b031682526020820192909252838516917fa0306f61d3fafe13787b78e276cb6b644382854a66cb46daae14227d3ec2679791a2612fa7565b508515612f90565b604051637db8130d60e11b81528383166004820152919450602090829060249082905afa908115612f1f5760009161312b575b509238612f5a565b613143915060203d811161035157610343818361237f565b38613123565b61316a815461315a600e548261319b565b90613185575b506012549061319b565b90613173575050565b670de0b6b3a764000060029104910155565b670de0b6b3a76400009004600184015538613160565b919082156131c3576131b08184029384612433565b036131bb5760019190565b600091508190565b5060019150600090565b6040516370a0823160e01b808252306004830152602095946001600160a01b038416938784602481885afa958615612f1f578894600097613274575b509061321792913091612b65565b60246040518094819382523060048301525afa938415612f1f57600094613245575b50506124069192612410565b81813d831161326d575b613259818361237f565b8101031261123b5751925061240638613239565b503d61324f565b9192939482819892983d83116132a7575b61328f818361237f565b81010312610363575051948793929190613217613209565b503d613285565b929190811561333b576040516370a0823160e01b8152306004820152936020856024816001600160a01b0385165afa948515612f1f57600095613308575b50846128ff94958411613300575b506128b7565b9250386132fa565b6020813d8211613333575b816133206020938361237f565b81010312611237575194506128ff6132ec565b3d9150613313565b50509050565b6005546040516308521f7960e01b81526004810192909252610100908190839060249082906001600160a01b03165afa8015612f1f576000928392849261338a575b5050909192565b819493508092503d83116133c2575b6133a3818361237f565b8101031261036357508051606060408301519201519091903880613383565b503d61339956fea2646970667358221220ce2689af51caffbae2c9a0ce737210580d500f4e72520e01e12ce469ccb62fa464736f6c63430008100033",
  "linkReferences": {},
  "deployedLinkReferences": {}
}